S00F00004C46525F4156522E73726563E9
S11300000C942A000C94EC060C941F070C946A07B9
S11300100C9447000C94B9070C9447000C944700C7
S11300200C9447000C9447000C9447000C94D007A0
S11300300C9447000C9447000C9447000C94470020
S11300400C9447000C9447000C9447000C94470010
S11300500C94470011241FBECFE5D8E0DEBFCDBF0E
S113006010E0A0E6B0E0ECEAF3E102C005900D92E6
S1130070A837B107D9F720E0A8E7B0E001C01D9286
S1130080AF39B207E1F70E945F050C94D4090C94D0
S113009000003E9A379A86B1876086B9089597B171
S11300A0907E97B997B1892B87B9369A3699FECF46
S11300B084B195B10895BF92CF92DF92EF92FF92EF
S11300C00F931F93CF93DF9310929E0010929D0085
S11300D008E710E0C0E0D0E00F2EF7E0DF2EF02DAF
S11300E0EE24E394F12CB12CC12C8D2D8C1B0E9499
S11300F04F0040919D0050919E002E2D3F2DF80100
S1130100729162918F016817790710F42B2D3C2DA1
S11301100C2E02C0220F331F0A94E2F7242B352B36
S113012030939E0020939D002196C830D105E9F6B6
S1130130DF91CF911F910F91FF90EF90DF90CF90BF
S1130140BF90089580919B0090919C0090939A0099
S11301508093990080919D0090919E00892B49F491
S11301608091990090919A0090939C0080939B00B9
S1130170089580919D0090919E008F3F910529F4F0
S113018010929C0010929B00089580919D00909184
S11301909E00499739F180919D0090919E000997A6
S11301A009F180919D0090919E004197D9F0809132
S11301B09D0090919E00C197A9F080919D0090911F
S11301C09E008137910571F080919D0090919E0071
S11301D08136910539F080919D0090919E0083367F
S11301E0910549F48091990090919A0090939C0014
S11301F080939B00089580919D0090919E000B97A1
S113020009F44DC080919D0090919E00439709F49C
S113021046C080919D0090919E004B9709F43FC089
S113022080919D0090919E000A97C9F180919D0054
S113023090919E00429799F180919D0090919E002B
S11302408737910561F180919D0090919E008337DD
S1130250910529F180919D0090919E00C797F9F036
S113026080919D0090919E004D97C9F080919D00D2
S113027090919E008736910591F080919D00909118
S11302809E000D9761F080919D0090919E00C9970A
S113029031F080919D0090919E00C39749F4809124
S11302A0990090919A0090939C0080939B000895EC
S11302B080919D0090919E000797C9F080919D00C8
S11302C090919E000F9799F080919D0090919E00CF
S11302D04F9769F080919D0090919E00CF9739F0DF
S11302E080919D0090919E008F37910539F484E6AA
S11302F090E090939C0080939B00089580919D00D2
S113030090919E00019739F486E490E090939C00CC
S113031080939B00089580919D0090919E00039787
S113032039F48CE390E090939C0080939B000895B3
S113033080919D0090919E00029739F080919D00DC
S113034090919E008D3F910539F48EE190E0909359
S11303509C0080939B00089580919D0090919E0045
S1130360069739F080919D0090919E00893F9105F8
S113037039F484E190E090939C0080939B0008956D
S113038080919D0090919E00049731F080919D0092
S113039090919E000E9739F48FE090E090939C002A
S11303A080939B00089580919D0090919E008B3FC7
S11303B0910539F48FE090E090939C0080939B002A
S11303C0089580919D0090919E000C9739F48AE0E5
S11303D090E090939C0080939B00089580919D00F1
S11303E090919E00833F910539F48AE090E09093C8
S11303F09C0080939B00089580919D0090919E00A5
S1130400089731F080919D0090919E004C9739F4AB
S113041085E090E090939C0080939B0008958091E8
S11304209D0090919E00873F910539F485E090E00E
S113043090939C0080939B00089580919D009091DF
S11304409E00489729F410929C0010929B000895F6
S113045080919D0090919E00873E910529F4109211
S11304609C0010929B00089580919D0090919E00A5
S11304708E3E9105E9F180919D0090919E00873711
S11304809105B1F180919D0090919E008636910571
S113049079F180919D0090919E008939910541F1F7
S11304A080919D0090919E008E37910509F1809175
S11304B09D0090919E00CC97D9F080919D009091E1
S11304C09E008C379105A1F080919D0090919E0033
S11304D0CE9771F080919D0090919E008737910591
S11304E039F080919D0090919E008E3E910529F4F3
S11304F010929C0010929B00089580919D00909111
S11305009E00409731F080919D0090919E00C89785
S113051039F48BEF9FEF90939C0080939B00089598
S113052080919D0090919E008F3E910539F48BEF50
S11305309FEF90939C0080939B00089580919D0071
S113054090919E00C09739F486EF9FEF90939C00A2
S113055080939B00089580919D0090919E008F3C14
S1130560910539F486EF9FEF90939C0080939B0054
S1130570089580919D0090919E00809739F080911C
S11305809D0090919E008037910539F481EF9FEF93
S113059090939C0080939B00089580919D0090917E
S11305A09E008F3D910539F481EF9FEF90939C005D
S11305B080939B00089580919D0090919E008036C9
S11305C0910539F080919D0090919E008F3991059D
S11305D039F48CEE9FEF90939C0080939B000895D8
S11305E080919D0090919E008034910539F0809116
S11305F09D0090919E008F3B910539F482EE9FEF10
S113060090939C0080939B00089580919D0090910D
S11306109E00803C910539F484EC9FEF90939C00FC
S113062080939B00089580919D0090919E00803856
S1130630910539F48AEB9FEF90939C0080939B0083
S1130640089580919D0090919E00803E9105E1F077
S113065080919D0090919E00803F9105A9F080912A
S11306609D0090919E00883F910571F080919D00BE
S113067090919E008C3F910539F080919D0090915E
S11306809E008E3F910539F48CE99FEF90939C0076
S113069080939B00089580919D0090919E00883DD9
S11306A0910509F44FC080919D0090919E00803D7A
S11306B0910509F447C080919D0090919E00883C6B
S11306C0910509F43FC080919D0090919E00803572
S11306D09105C1F180919D0090919E00883491050F
S11306E089F180919D0090919E008E3E910551F17B
S11306F080919D0090919E008E3C910519F180910E
S11307009D0090919E008C3E9105E1F080919D00AA
S113071090919E00863E9105A9F080919D00909154
S11307209E00803B910571F080919D0090919E0008
S11307308C39910539F080919D0090919E008C3CFC
S1130740910549F48091990090919A0090939C00AE
S113075080939B00089580919D0090919E0088391C
S1130760910551F180919D0090919E0080399105F1
S113077019F180919D0090919E0088389105E1F0D7
S113078080919D0090919E008C389105A9F08091F4
S11307909D0090919E008E38910571F080919D008E
S11307A090919E008638910539F080919D0090913A
S11307B09E00863C910541F48091990090919A00A5
S11307C090939C0080939B00089580E090E00E94A9
S11307D0FB0780E090E00E94FD07AF9AAE98AD9AC7
S11307E0AC98089580E090E00E94FB0780E090E0E0
S11307F00E94FD07AF98AE9AAD9AAC98089580E038
S113080090E00E94FB0780E090E00E94FD07AF9A11
S1130810AE98AD98AC9A08958F929F92AF92BF9282
S1130820CF92DF92EF92FF920F931F93CF93DF93B8
S1130830C0919B00D0919C00C195C09388000C2F5F
S11308400C2E000C110B6091850070918600600FD6
S1130850711F772314F46F5F7F4F7B01F594E79446
S1130860F0928600E09285006C2F0C2E000C770B22
S1130870880B990B0E94B7082091640030916500A1
S113088040916600509167000E9467094B015C012A
S1130890B701FF0C880B990B0E94B70820917800D0
S11308A03091790040917A0050917B000E94670951
S11308B09B01AC01C501B4010E940E086B017C01CF
S11308C0809187009801281B310987FD3395B90170
S11308D0330F880B990B0E94B70820916000309168
S11308E0610040916200509163000E9467099B017E
S11308F0AC01C701B6010E940E0860938100709399
S113090082008093830090938400C09387000E94A8
S11309107F087093800060937F006D3D7105CCF07B
S11309206C5D6D3D18F460937C0003C08CED809386
S11309307C008CED90E09093800080937F000E9477
S1130940F20380917C0080937E008CED80937D0087
S113095040C064324FEF7407DCF424E2822F861B1C
S11309608D3D18F480937C0003C08CED80937C0053
S113097084E29FEF9093800080937F000E94FF03A6
S11309808CED80937E0080917C0080937D0021C05B
S11309909B0125523F4F2B3D310558F40E94E5033E
S11309A08CED80937E0080917F00845280937D0043
S11309B010C0615071096B3D710558F40E94E50344
S11309C08CED90917F00282F291B20937E0080932B
S11309D07D00DF91CF911F910F91FF90EF90DF90F9
S11309E0CF90BF90AF909F908F90089580E090E05B
S11309F00E94FB0780E090E00E94FD07AF9AAE984A
S1130A00AD9AAC988CED90E00E94FB078CED90E0E1
S1130A100E94FD07089580E090E00E94FB0780E0BB
S1130A2090E00E94FD07AF98AE9AAD98AC9A8CED19
S1130A3090E00E94FB078CED90E00E94FD07089572
S1130A400E940B058FE891E00197F1F700C00000C8
S1130A5080E090E00E94FB0780E090E00E94FD07A8
S1130A60AF98AE98AD98AC98089580E090E00E945D
S1130A70FB0780E090E00E94FD07AF9AAE98AD9826
S1130A80AC9A88EC90E00E94FB0788EC90E00E940E
S1130A90FD07089580E090E00E94FB0780E090E06D
S1130AA00E94FD07AF98AE9AAD9AAC9888EC90E09E
S1130AB00E94FB0788EC90E00E94FD0708958C9A41
S1130AC08D9AB99A8B988A98BA98A79AA69AA59A51
S1130AD0A49A8F9ABB9A0E9449000E94FF070E9421
S1130AE0E7070E94F1070E94E5030E94F6048CEDDB
S1130AF090E00E94FB078CED90E00E94FD07689453
S1130B00EE24E2F8F12C06E010E00E945B000E9463
S1130B10A20080919B0090919C008436910551F035
S1130B2080919B0090919C008C399F4FC9F4CE2DED
S1130B30DF2D02C0CE2DDF2D0E945B000E94A2009B
S1130B4080919B0090919C008436910539F08091AE
S1130B509B0090919C008C399F4F11F4219761F771
S1130B6060919B0070919C00072E000C880B990BE0
S1130B700E94B70820E030E040E05FE30E947A087A
S1130B80811102C00E94F60480919D0090919E0004
S1130B90C79739F080919D0090919E008C3E9105FD
S1130BA031F40E94F6040E945B000E94A20080912E
S1130BB09B0090919C008037910559F40E94F604A3
S1130BC08FEF91EE24E0815090402040E1F700C087
S1130BD0000080919B0090919C008837910509F05A
S1130BE041C00E9420058FEF90E722E081509040A1
S1130BF02040E1F700C00000C02FD12F0E945B000D
S1130C000E94A2002197D1F726C00E9420052FEF51
S1130C1081EE94E0215080409040E1F700C0000054
S1130C200E9435052FEF84E39CE0215080409040E2
S1130C30E1F700C0000080919B0090919C004097D8
S1130C4054F00E945B000E94A20080919B0090914E
S1130C509C004097B4F780919B0090919C0088374A
S1130C60910599F280919B0090919C0088389F4F48
S1130C7009F03FC00E9420058FEF90E722E08150E9
S1130C8090402040E1F700C000000E945B000E94F9
S1130C90A20028C00E9420058FEF91EE24E081502D
S1130CA090402040E1F700C000000E944A058FEF09
S1130CB094E32CE0815090402040E1F700C0000014
S1130CC080919B0090919C00813F9F4F5CF40E9417
S1130CD05B000E94A20080919B0090919C00813F48
S1130CE09F4FACF380919B0090919C0088389F4F5C
S1130CF089F280919B0090919C008436910559F56E
S1130D0023C00E9420058FE39CE90197F1F700C0FE
S1130D1000000E9435059FEF23EC89E091502040AC
S1130D208040E1F700C0000080919B0090919C00FE
S1130D30409754F00E945B000E94A20080919B00A7
S1130D4090919C004097B4F780919B0090919C00F7
S1130D5084369105B1F280919B0090919C008C396E
S1130D609F4F69F525C00E9420058FE39CE90197F8
S1130D70F1F700C000000E944A059FEF23EC89E0D0
S1130D80915020408040E1F700C0000080919B001A
S1130D9090919C00813F9F4F5CF40E945B000E94F5
S1130DA0A20080919B0090919C00813F9F4FACF3E7
S1130DB080919B0090919C008C399F4FA1F20E94DE
S1130DC00C0480917E0090E00E94FB0780917D00DE
S1130DD090E00E94FD0799CE1F920F920FB60F92DA
S1130DE011248F939F938091950090919600892B65
S1130DF051F48EB582608EBD81E090E090939600B0
S1130E008093950015C0809195009091960001976C
S1130E1079F41EBC8CB59DB59695879590939800F2
S1130E20809397001DBC1CBC1092960010929500F4
S1130E309F918F910F900FBE0F901F9018951F9246
S1130E400F920FB60F9211242F933F934F935F93FA
S1130E508F939F938091910090919200892B51F4EC
S1130E6083B7836083BF81E090E090939200809386
S1130E70910025C080919100909192000197F9F41E
S1130E8013BE22B740918B0050918C003FEF349FEA
S1130E90C001359F900D1124820F911D880F991F59
S1130EA0880F991F909394008093930010928C0064
S1130EB010928B0012BE10929200109291009F919A
S1130EC08F915F914F913F912F910F900FBE0F9093
S1130ED01F9018951F920F920FB60F9211242F9303
S1130EE03F934F935F938F939F9394B780E48927A5
S1130EF084BF80918D0090918E00892B51F485B52B
S1130F00846085BD81E090E090938E0080938D0095
S1130F1025C080918D0090918E000197F9F415BC45
S1130F2024B54091890050918A003FEF349FC0015D
S1130F30359F900D1124820F911D880F991F880FE2
S1130F40991F9093900080938F0010928A001092C2
S1130F50890014BC10928E0010928D009F918F9185
S1130F605F914F913F912F910F900FBE0F901F9063
S1130F7018951F920F920FB60F9211248F939F937F
S1130F808091890090918A00019690938A008093C1
S1130F9089009F918F910F900FBE0F901F9018950D
S1130FA01F920F920FB60F9211248F939F938091EB
S1130FB08B0090918C00019690938C0080938B0011
S1130FC09F918F910F900FBE0F901F90189583B72C
S1130FD0886483BF83B7806283BF83B7816083BF24
S1130FE0089585B5886485BD85B5806285BD85B560
S1130FF0816085BD08958CBF089583BD089580B533
S11310008F7B80BD599810BC87E689B98AB1886105
S11310108AB980B58E6880BD08955058BB27AA2729
S11310200E9425080C942D090E941F0938F00E9483
S1131030260920F039F49F3F19F426F40C941C0976
S11310400EF4E095E7FB0C941609E92F0E943E0983
S113105058F3BA17620773078407950720F079F4E9
S1131060A6F50C9460090EF4E0950B2EBA2FA02D72
S11310700B01B90190010C01CA01A0011124FF2741
S1131080591B99F0593F50F4503E68F11A16F0403C
S1131090A22F232F342F4427585FF3CF469537953B
S11310A02795A795F0405395C9F77EF41F16BA0B00
S11310B0620B730B840BBAF09150A1F0FF0FBB1FAE
S11310C0661F771F881FC2F70EC0BA0F621F731FF7
S11310D0841F48F4879577956795B795F7959E3F54
S11310E008F0B0CF9395880F08F09927EE0F9795E5
S11310F0879508950E94F20808F481E008950E94FB
S113110086086894B1110C94610908950E944609F7
S113111088F09F5798F0B92F9927B751B0F0E1F0B4
S1131120660F771F881F991F1AF0BA95C9F714C064
S1131130B13091F00E946009B1E008950C94600907
S1131140672F782F8827B85F39F0B93FCCF386959D
S113115077956795B395D9F73EF4909580957095FA
S113116061957F4F8F4F9F4F0895E89409C097FB77
S11311703EF490958095709561957F4F8F4F9F4F6A
S11311809923A9F0F92F96E9BB279395F6958795AE
S113119077956795B795F111F8CFFAF4BB0F11F471
S11311A060FF1BC06F5F7F4F8F4F9F4F16C0882318
S11311B011F096E911C0772321F09EE8872F762F4E
S11311C005C0662371F096E8862F70E060E02AF08F
S11311D09A95660F771F881FDAF7880F969587957B
S11311E097F90895990F0008550FAA0BE0E8FEEF50
S11311F016161706E807F907C0F012161306E407D7
S1131200F50798F0621B730B840B950B39F40A26CF
S113121061F0232B242B252B21F408950A2609F4AD
S1131220A140A6958FEF811D811D089597F99F67B1
S113123080E870E060E008959FEF80EC089500245A
S11312400A941616170618060906089500240A9427
S113125012161306140605060895092E0394000CAD
S113126011F4882352F0BB0F40F4BF2B11F460FF3C
S113127004C06F5F7F4F8F4F9F4F089557FD905865
S1131280440F551F59F05F3F71F04795880F97FB46
S1131290991F61F09F3F79F0879508951216130600
S11312A01406551FF2CF4695F1DF08C0161617062F
S11312B01806991FF1CF8695710561050894089564
S11312C0E894BB2766277727CB0197F908950E94F6
S11312D07A090C942D090E941F0938F00E942609EE
S11312E020F0952311F00C9416090C941C09112478
S11312F00C9461090E943E0970F3959FC1F3950F08
S113130050E0551F629FF001729FBB27F00DB11D85
S1131310639FAA27F00DB11DAA1F649F6627B00D15
S1131320A11D661F829F2227B00DA11D621F739FFE
S1131330B00DA11D621F839FA00D611D221F749F0C
S11313403327A00D611D231F849F600D211D822F53
S1131350762F6A2F11249F5750409AF0F1F088237A
S11313604AF0EE0FFF1FBB1F661F771F881F9150A7
S11313705040A9F79E3F510580F00C9416090C9437
S113138061095F3FE4F3983ED4F3869577956795BA
S1131390B795F795E7959F5FC1F7FE2B880F911DD1
S10F13A09695879597F90895F894FFCF6F
S11313AC33337340333373402602580258025802C5
S10B13BC580258025802C20154
S9030000FC
