:100000000C942A000C94A7000C94DA000C9447007E
:100010000C9447000C9447000C9447000C94470044
:100020000C9447000C9447000C9447000C94250155
:100030000C9447000C9447000C9447000C94470024
:100040000C9447000C9447000C9447000C94470014
:100050000C94470011241FBECFE5D8E0DEBFCDBF12
:1000600010E0A0E6B0E0E8ECF2E002C005900D92EE
:10007000A236B107D9F720E0A2E6B0E001C01D9298
:10008000AC36B207E1F70E9473000C9462010C9445
:1000900000003E9A379A86B1876086B9089580E05D
:1000A00090E00E94500180E090E00E945201AF9ADF
:1000B000AE98AD9AAC98089580E090E00E9450010F
:1000C00080E090E00E945201AF9AAE98AD9AAC9851
:1000D0008091600090E00E9450018091600090E06B
:1000E0000E94520108958C9A8D9A8B988A98A79AAB
:1000F000A69AA59AA49A8F9ABB9A0E9449000E9438
:1001000054010E943C010E9446010E944F000E943F
:100110005C008091600090E00E945001809160003E
:1001200090E00E9452010E945C008FEF90E00E94DC
:1001300050018FEF90E00E9452012FEF89E698E185
:10014000215080409040E1F700C00000FFCF1F9297
:100150000F920FB60F9211248F939F938091680096
:1001600090916900892B51F48EB582608EBD81E03B
:1001700090E0909369008093680015C080916800BA
:1001800090916900019779F41EBC8CB59DB5969548
:10019000879590936B0080936A001DBC1CBC1092E5
:1001A0006900109268009F918F910F900FBE0F9081
:1001B0001F9018951F920F920FB60F9211242F9334
:1001C0003F934F935F938F939F938091640090919F
:1001D0006500892B51F483B7836083BF81E090E091
:1001E000909365008093640025C080916400909195
:1001F00065000197F9F413BE22B740916200509157
:1002000063003FEF349FC001359F900D1124820F92
:10021000911D880F991F880F991F909367008093F5
:100220006600109263001092620012BE1092650088
:10023000109264009F918F915F914F913F912F9108
:100240000F900FBE0F901F9018951F920F920FB630
:100250000F9211248F939F9380916200909163007D
:10026000019690936300809362009F918F910F900D
:100270000FBE0F901F90189583B7886483BF83B714
:10028000806283BF83B7816083BF089585B588642A
:1002900085BD85B5806285BD85B5816085BD0895C4
:1002A0008CBF089583BD089580B58F7B80BD59981C
:1002B00010BC87E689B98AB188618AB980B58E6831
:0802C00080BD0895F894FFCF02
:0202C800C8006C
:00000001FF
