S00F00004C46525F4156522E73726563E9
S11300000C942A000C9447000C94EF000C944700C5
S11300100C9447000C9447000C9447000C94470040
S11300200C9447000C9447000C9447000C94470030
S11300300C9447000C9447000C9447000C94470020
S11300400C9447000C9447000C9447000C94470010
S11300500C94470011241FBECFE5D8E0DEBFCDBF0E
S113006010E0A0E6B0E0E0ECF5E002C005900D92EF
S1130070AA36B107D9F720E0AAE6B0E001C01D9284
S1130080AF36B207E1F70E94C5000C94DE020C946F
S1130090000010926A009498949A35E33A95F1F727
S11300A00000949821E031C08EB582608EBD839BA0
S11300B021C01DBC1CBC8EB582608EBD0BC08CB52E
S11300C09DB58938934130F01EBC1DBC1CBC8FE625
S11300D090E008958399F3CF1EBC8CB59DB5969599
S11300E0879590936E0080936D001DBC1CBC20937B
S11300F06A000BC08CB59DB58131974230F01EBCAF
S11301001DBC1CBC80E790E0089580916A008823A0
S113011059F260916D0070916E00072E000C880BEF
S1130120990B0E94A50129E23CE54FE05DE30E94A2
S1130130310220E030E040E05FE30E9431020E949F
S11301407401CB01089580E090E00E94300180E0CA
S113015090E00E943201AF9AAE98AD9AAC9808959F
S113016080E090E00E94300180E090E00E94320143
S1130170AF9AAE98AD9AAC9888EC90E00E943001AA
S113018088EC90E00E94320108958C9A8D9AB99A75
S11301908B988A98BA98A79AA69AA59AA49A8F9A9D
S11301A0BB9A0E9434010E941C010E9426010E94F5
S11301B0A3000E94B0000E9449006AE070E00E941F
S11301C0550180E690E00E9446012FEF80E792E01F
S11301D0215080409040E1F700C00000ECCF1F9216
S11301E00F920FB60F9211248F939F9380916C00FE
S11301F0811107C08EB582608EBD81E080936C0052
S113020014C0813091F41EBC8CB59DB5969587952C
S113021090936E0080936D001DBC1CBC10926C000A
S113022081E080936A0010926B009F918F910F90F0
S11302300FBE0F901F90189583B7886483BF83B750
S1130240806283BF83B7816083BF089585B5886466
S113025085BD85B5806285BD85B5816085BD089500
S11302608CBF089583BD089580B58F7B80BD599858
S113027010BC87E689B98AB188618AB980B58E686D
S113028080BD08955D9BFECF8CB90895CF93DF9315
S1130290EC018881882331F021960E9442018991E2
S11302A08111FBCFDF91CF910895CF93DF93CDB729
S11302B0DEB760970FB6F894DEBF0FBECDBFAB01BB
S11302C05D9BFECFBE016F5F7F4F0E949E02CE01F9
S11302D001960E94460160960FB6F894DEBF0FBEE9
S11302E0CDBFDF91CF9108950E94100288F09F57EF
S11302F098F0B92F9927B751B0F0E1F0660F771F46
S1130300881F991F1AF0BA95C9F714C0B13091F03B
S11303100E942A02B1E008950C942A02672F782FD4
S11303208827B85F39F0B93FCCF386957795679500
S1130330B395D9F73EF490958095709561957F4F6C
S11303408F4F9F4F0895E89409C097FB3EF4909512
S11303508095709561957F4F8F4F9F4F9923A9F09A
S1130360F92F96E9BB279395F69587957795679529
S1130370B795F111F8CFFAF4BB0F11F460FF1BC06D
S11303806F5F7F4F8F4F9F4F16C0882311F096E900
S113039011C0772321F09EE8872F762F05C06623AE
S11303A071F096E8862F70E060E02AF09A95660F67
S11303B0771F881FDAF7880F9695879597F9089520
S11303C097F99F6780E870E060E008959FEF80EC04
S11303D0089500240A9416161706180609060895A7
S11303E000240A9412161306140605060895092E0D
S11303F00394000C11F4882352F0BB0F40F4BF2B7C
S113040011F460FF04C06F5F7F4F8F4F9F4F0895BB
S113041057FD9058440F551F59F05F3F71F04795B1
S1130420880F97FB991F61F09F3F79F08795089596
S1130430121613061406551FF2CF4695F1DF08C0B5
S1130440161617061806991FF1CF869571056105D2
S113045008940895E894BB2766277727CB0197F97A
S113046008950E9444020C94F7010E94E90138F0B7
S11304700E94F00120F0952311F00C94E0010C94FB
S1130480E60111240C942B020E94080270F3959F3C
S1130490C1F3950F50E0551F629FF001729FBB2777
S11304A0F00DB11D639FAA27F00DB11DAA1F649F13
S11304B06627B00DA11D661F829F2227B00DA11DC6
S11304C0621F739FB00DA11D621F839FA00D611D4C
S11304D0221F749F3327A00D611D231F849F600D6D
S11304E0211D822F762F6A2F11249F5750409AF096
S11304F0F1F088234AF0EE0FFF1FBB1F661F771F22
S1130500881F91505040A9F79E3F510580F00C94EC
S1130510E0010C942B025F3FE4F3983ED4F38695FC
S113052077956795B795F795E7959F5FC1F7FE2B8C
S1130530880F911D9695879597F908954532510531
S113054020F4423010F00C94A902FB011082CB017C
S11305500895BB274A3031F4992322F4BDE29095E3
S113056081959F4F0C94B502BB27FB015527AA2701
S1130570880F991FAA1FA41710F0A41B839550512C
S1130580B9F7A05DAA3308F0A95DA193009779F7A4
S1130590B111B1931192CB010C94CE02DC01FC0198
S11305A0672F71917723E1F7329704C07C916D93A3
S11305B070836291AE17BF07C8F30895F894FFCF14
S10D05C009000A004431203A20002B
S9030000FC
