:100000000C942A000C9463030C9496030C94470000
:100010000C9447000C9447000C9447000C94470044
:100020000C9447000C9447000C9447000C94E10397
:100030000C9447000C9447000C9447000C94470024
:100040000C9447000C9447000C9447000C94470014
:100050000C94470011241FBECFE5D8E0DEBFCDBF12
:1000600010E0A0E6B0E0ECECFBE002C005900D92E1
:10007000AA38B107D9F720E0AAE8B0E001C01D9284
:10008000A53BB207E1F70E9434030C94E4050C94FD
:1000900000003E9A379A86B1876086B9089597B175
:1000A000907E97B997B1892B87B9369A3699FECF4A
:1000B00084B195B108954F925F926F927F928F9223
:1000C0009F92AF92BF92CF92DF92EF92FF920F93E7
:1000D0001F93CF93DF931092B4001092B30010924D
:1000E0009800109297001092940010929B008091BB
:1000F0008F0081116BC00F2EF9E8EF2EF0E0FF2E7C
:10010000F02DC7E0D6E400E010E0A12CC12CB12C0A
:100110000F2EF7E0DF2EF02D612C712C88248394B4
:10012000912C552453940F2EFAE04F2EF02D8D2D47
:10013000801B0E944F00F701329122917F01281706
:10014000390738F1CC2334F4842D8C1BC89F802DC3
:10015000112405C08AE08C0FC89F802D1124CD2E5C
:100160002091970030919800A901480F511D87FDFB
:100170005A955093980040939700809194008F5F18
:1001800080939400A11008C0BD2EA52C882D992D18
:1001900005C0862D972D02C0882D992D2091B30082
:1001A0003091B400002E02C0880F991F0A94E2F724
:1001B000822B932B9093B4008093B3000F5F1F4F5B
:1001C000D451C250C73F09F0B2CF70C0813009F09E
:1001D0006BC00F2EF9E7EF2EF0E0FF2EF02DC7E0F9
:1001E000D6E400E010E0A12CC12CB12C0F2EF7E0DA
:1001F000DF2EF02D612C712C88248394912C5524B2
:1002000053940F2EFAE04F2EF02D8D2D801B0E945F
:100210004F00F701329122917F018217930738F145
:10022000CC2334F4842D8C1B8C9F802D112405C08D
:100230008AE08C0F8C9F802D1124CD2E2091970069
:1002400030919800A901480F511D87FD5A95509390
:10025000980040939700809194008F5F8093940062
:10026000A11008C0BD2EA52C882D992D05C0862D66
:10027000972D02C0882D992D2091B3003091B400A4
:10028000002E02C0880F991F0A94E2F7822B932B4D
:100290009093B4008093B3000F5F1F4FD451C250AE
:1002A000C73F09F0B2CF02C0C12CB12C8091B3007E
:1002B0009091B400892BB1F48091910080518435E4
:1002C00030F481E080938E008AE080939A0010924F
:1002D0009100809195009091960090939800809362
:1002E00097005FC08091B3009091B4008F3F91055B
:1002F00081F480919000811105C0809191008F5F01
:1003000080939100109298001092970010929B0099
:100310004CC0809191008051843530F481E080930D
:100320008E008AE080939A00109291002B2D2C1958
:1003300030919400632F70E0809197009091980025
:100340000E94BC057093980060939700709396008C
:100350006093950084EC820F893218F587E62802B5
:10036000812D112485958595859527FD8395831B82
:100370008F3F59F481E080939B0080919A008F5FBA
:1003800080939A00109299000CC0833050F482E060
:1003900080939B0010929A00809199008F5F8093C8
:1003A000990080919B00811104C010929A001092D4
:1003B0009900DF91CF911F910F91FF90EF90DF9007
:1003C000CF90BF90AF909F908F907F906F905F90F5
:1003D0004F90089580E090E00E940C0480E090E04F
:1003E0000E940E04AF9AAE98AD9AAC98089580E042
:1003F00090E00E940C0480E090E00E940E04AF9810
:10040000AE9AAD9AAC98089580E090E00E940C04FA
:1004100080E090E00E940E04AF9AAE98AD98AC9A3E
:1004200008958F929F92AF92BF92CF92DF92EF92F8
:10043000FF921F93CF93DF9390919700892F81951F
:100440008093A80088E2891B813580F48091920016
:100450009091930001969093930080939200853F32
:10046000914058F086EE8093680007C01092930088
:100470001092920088EC809368001091A800C12F20
:10048000012E000CDD0B6091A5007091A6006C0F91
:100490007D1F772314F46F5F7F4F7B01F594E79402
:1004A000F092A600E092A500612F012E000C770BC0
:1004B000880B990B0E94C304209164003091650061
:1004C00040916600509167000E944F054B015C010E
:1004D000B701FF0C880B990B0E94C30420918A007E
:1004E00030918B0040918C0050918D000E944F05FF
:1004F0009B01AC01C501B4010E941F046B017C018A
:100500008091A7009E01281B310987FD3395B90111
:10051000330F880B990B0E94C30420916000309127
:10052000610040916200509163000E944F059B0161
:10053000AC01C701B6010E941F046093A100709333
:10054000A2008093A3009093A4001093A7000E94A0
:100550008B04862F972F262F372F3093A0002093C0
:100560009F0020916800422F50E048175907BCF4C3
:10057000621B261718F060939C0002C020939C0019
:100580005093A00040939F000E94F70180919C002F
:1005900080939E008091680080939D0042C0EE276A
:1005A000FF27E41BF50B8E179F07C4F4620F6195BC
:1005B000261718F060939C0002C020939C00F093D3
:1005C000A000E0939F000E94040280916800809345
:1005D0009E0080919C0080939D0023C099237CF411
:1005E000E817F90764F40E94EA018091680080939B
:1005F0009E0090919F00890F80939D0012C0181655
:1006000019067CF48417950764F40E94EA0180912E
:10061000680090919F00382F391B30939E00809383
:100620009D00DF91CF911F91FF90EF90DF90CF90D1
:10063000BF90AF909F908F90089580E090E00E94CF
:100640000C0480E090E00E940E04AF9AAE98AD9A40
:10065000AC988091680090E00E940C048091680042
:1006600090E00E940E0408958C9A8D9A8B988A9837
:10067000A79AA69AA59AA49A8F9ABB9A0E94490013
:100680000E9410040E94F8030E9402040E94EA01E2
:100690000E941D038091680090E00E940C048091EC
:1006A000680090E00E940E040E945B000E9411020C
:1006B00080919E0090E00E940C0480919D0090E04B
:1006C0000E940E04F1CF1F920F920FB60F921124C9
:1006D0008F939F938091AF009091B000892B51F43C
:1006E0008EB582608EBD81E090E09093B0008093E3
:1006F000AF0015C08091AF009091B000019779F4E0
:100700001EBC8CB59DB5969587959093B20080934D
:10071000B1001DBC1CBC1092B0001092AF009F91A4
:100720008F910F900FBE0F901F9018951F920F92F0
:100730000FB60F9211242F933F934F935F938F9394
:100740009F938091AB009091AC00892B51F483B7BB
:10075000836083BF81E090E09093AC008093AB0016
:1007600025C08091AB009091AC000197F9F413BEC5
:1007700022B74091A9005091AA003FEF349FC001D9
:10078000359F900D1124820F911D880F991F880F9E
:10079000991F9093AE008093AD001092AA00109222
:1007A000A90012BE1092AC001092AB009F918F91E5
:1007B0005F914F913F912F910F900FBE0F901F901F
:1007C00018951F920F920FB60F9211248F939F933B
:1007D0008091A9009091AA0001969093AA0080931D
:1007E000A9009F918F910F900FBE0F901F901895A9
:1007F00083B7886483BF83B7806283BF83B7816018
:1008000083BF089585B5886485BD85B5806285BD43
:1008100085B5816085BD08958CBF089583BD089519
:1008200080B58F7B80BD599810BC87E689B98AB1A5
:1008300088618AB980B58E6880BD08955058BB27FD
:10084000AA270E9436040C9415050E94070538F06B
:100850000E940E0520F039F49F3F19F426F40C9401
:1008600004050EF4E095E7FB0C94FE04E92F0E94CA
:10087000260558F3BA17620773078407950720F017
:1008800079F4A6F50C9448050EF4E0950B2EBA2FDA
:10089000A02D0B01B90190010C01CA01A001112486
:1008A000FF27591B99F0593F50F4503E68F11A1632
:1008B000F040A22F232F342F4427585FF3CF4695C3
:1008C00037952795A795F0405395C9F77EF41F16E5
:1008D000BA0B620B730B840BBAF09150A1F0FF0FAF
:1008E000BB1F661F771F881FC2F70EC0BA0F621F9B
:1008F000731F841F48F4879577956795B795F7958B
:100900009E3F08F0B0CF9395880F08F09927EE0F1F
:100910009795879508950E9492046894B1110C945C
:10092000490508950E942E0588F09F5798F0B92F29
:100930009927B751B0F0E1F0660F771F881F991F14
:100940001AF0BA95C9F714C0B13091F00E94480569
:10095000B1E008950C944805672F782F8827B85F79
:1009600039F0B93FCCF3869577956795B395D9F76C
:100970003EF490958095709561957F4F8F4F9F4F76
:100980000895E89409C097FB3EF490958095709582
:1009900061957F4F8F4F9F4F9923A9F0F92F96E9CB
:1009A000BB279395F695879577956795B795F11140
:1009B000F8CFFAF4BB0F11F460FF1BC06F5F7F4FDD
:1009C0008F4F9F4F16C0882311F096E911C07723EF
:1009D00021F09EE8872F762F05C0662371F096E8F8
:1009E000862F70E060E02AF09A95660F771F881FC7
:1009F000DAF7880F9695879597F9089597F99F6785
:100A000080E870E060E008959FEF80EC0895002496
:100A10000A941616170618060906089500240A9463
:100A200012161306140605060895092E0394000CE9
:100A300011F4882352F0BB0F40F4BF2B11F460FF78
:100A400004C06F5F7F4F8F4F9F4F089557FD9058A1
:100A5000440F551F59F05F3F71F04795880F97FB82
:100A6000991F61F09F3F79F087950895121613063C
:100A70001406551FF2CF4695F1DF08C0161617066B
:100A80001806991FF1CF86957105610508940895A0
:100A9000E894BB2766277727CB0197F908950E9432
:100AA00062050C9415050E94070538F00E940E059A
:100AB00020F0952311F00C94FE040C9404051124ED
:100AC0000C9449050E94260570F3959FC1F3950F7C
:100AD00050E0551F629FF001729FBB27F00DB11DC2
:100AE000639FAA27F00DB11DAA1F649F6627B00D52
:100AF000A11D661F829F2227B00DA11D621F739F3B
:100B0000B00DA11D621F839FA00D611D221F749F48
:100B10003327A00D611D231F849F600D211D822F8F
:100B2000762F6A2F11249F5750409AF0F1F08823B6
:100B30004AF0EE0FFF1FBB1F661F771F881F9150E3
:100B40005040A9F79E3F510580F00C94FE040C9490
:100B500049055F3FE4F3983ED4F386957795679512
:100B6000B795F795E7959F5FC1F7FE2B880F911D0D
:100B70009695879597F9089597FB072E16F400949C
:100B800007D077FD09D00E94D00507FC05D03EF4C0
:100B9000909581959F4F0895709561957F4F089529
:100BA000AA1BBB1B51E107C0AA1FBB1FA617B70793
:100BB00010F0A61BB70B881F991F5A95A9F78095AF
:0C0BC0009095BC01CD010895F894FFCF82
:100BCC000000C84100002040C8B603CA03CA03CACB
:100BDC0003CA03CA03CA03EE02260258025802587B
:0A0BEC0002580258025802C201002C
:00000001FF
