:100000000C942A000C9447000C9447000C94470071
:100010000C9447000C9447000C9447000C94AC00DF
:100020000C9447000C9447000C9447000C94470034
:100030000C9447000C9447000C9447000C94470024
:100040000C9447000C9447000C9447000C94470014
:100050000C94470011241FBECFE5D8E0DEBFCDBF12
:1000600010E0A0E6B0E0EEE2FEE002C005900D92E6
:10007000A63CB107D9F721E0A6ECB0E001C01D9283
:10008000A830B207E1F70E9424040C9415070C94E1
:1000900000003E9A379A86B1876086B9089597B175
:1000A000907E97B997B1892B87B9369A3699FECF4A
:1000B00084B195B10895FF920F931F93CF93DF936F
:1000C00000E910E0C0E0D0E0F12C8C2F0E944F003E
:1000D000F801219131918F018217930720F48C2F21
:1000E000880FF80EDF5FCF5FC83079F78F2D6D2F47
:1000F0000E94A60690E09093CF008093CE00D83067
:1001000051F48091CB009091CC0001969093CC005B
:100110008093CB0004C01092CC001092CB00DF91F2
:10012000CF911F910F91FF9008959093E5008093D8
:10013000E40089B7806189BF78941DBC1CBC89EF3D
:1001400090E09BBD8ABD8EB58B608EBD08951EBCB0
:10015000F8941DBC1CBC08951F920F920FB60F920D
:1001600011242F933F938F939F938091E60090915A
:10017000E70001969093E7008093E6001DBC1CBC4D
:100180002091E6003091E7008091E4009091E50035
:100190002817390750F08EB58EBD81E08093E300BB
:1001A0001092E7001092E600F8949F918F913F9192
:1001B0002F910F900FBE0F901F90189580E090E048
:1001C0000E94960480E090E00E949804AF9AAE9856
:1001D000AD9AAC98089580E090E00E94960480E08B
:1001E00090E00E949804AF98AE9AAD9AAC980895AA
:1001F00080E090E00E94960480E090E00E949804E5
:10020000AF9AAE98AD98AC9A089580E090E00E94C5
:10021000960480E090E00E949804AF9AAE98AD9A60
:10022000AC988091CA0090E00E9496048091CA0028
:1002300090E00E949804089580E090E00E94960467
:1002400080E090E00E949804AF98AE9AAD98AC9A86
:1002500082E890E00E94960482E890E00E94980470
:1002600008950E941C018FE891E00197F1F700C00A
:10027000000080E090E00E94960480E090E00E9400
:100280009804AF98AE98AD98AC9808958F929F92CD
:10029000AF92BF92CF92DF92EF92FF926091CE0029
:1002A0007091CF0067507109072E000C880B990BD5
:1002B0000E9484056B017C016093DD007093DE0079
:1002C0008093DF009093E00020E030E040E450E4D1
:1002D0000E9434068823E4F020E030E040E450EC53
:1002E000C701B6010E944705181694F08091E100FD
:1002F0009091E20001969093E2008093E1000E94C9
:1003000031018FE99FE00197F1F700C0000019C0AB
:1003100020E030E040E450E4C701B6010E94470508
:1003200088237CF420E030E040E450ECC701B601C3
:100330000E94340618162CF41092E2001092E1008C
:1003400019C08091E1009091E200029798F081E05D
:100350008093CD008FEF8093CA0088E290E0909365
:10036000C9008093C80088EC90E09093C700809308
:10037000C60011C01092CD0089EB8093CA008BE2B9
:1003800090E09093C9008093C8008AE892E090932F
:10039000C7008093C600C090DD00D090DE00E090E2
:1003A000DF00F090E0002091D9003091DA00409118
:1003B000DB005091DC00C701B6010E94DA044B015A
:1003C0005C016091C6007091C70080E090E00E94DF
:1003D00082059B01AC01C501B4010E9439064B01A5
:1003E0005C016091C8007091C90080E090E00E94BB
:1003F0008205A70196010E9439069B01AC01C50147
:10040000B4010E94DB046093D5007093D600809302
:10041000D7009093D800C092D900D092DA00E09231
:10042000DB00F092DC000E944C05862F972F262FD0
:10043000372F3093D4002093D3002091CA00422F4D
:1004400050E048175907BCF4621B261718F0609358
:10045000D00002C02093D0005093D4004093D3002A
:100460000E94F8008091D0008093D1008091CA0052
:100470008093D2003FC0EE27FF27E41BF50B8E17B9
:100480009F07C4F4620F6195261718F06093D0009F
:1004900002C02093D000F093D400E093D3000E94D8
:1004A000EB008091CA008093D1008091D0008093AE
:1004B000D20020C0992384F084179507DCF40E94B1
:1004C000DE008091CA009091D300282F291B209331
:1004D000D1008093D2000EC0E817F9075CF40E94A7
:1004E000DE008091CA008093D1009091D300890FE3
:1004F0008093D200FF90EF90DF90CF90BF90AF90AD
:100500009F908F900895CF93DF93C82F80E090E065
:100510000E94960480E090E00E949804AF9AAE9802
:10052000AD98AC9AD0E0CE010E949604CE010E9414
:100530009804DF91CF9108955F926F927F928F928E
:100540009F92AF92BF92CF92DF92EF92FF920F9362
:100550001F93CF93DF9388E893E10E9495008CE886
:100560000E9483021DC08C2F0E944F00282F392F1C
:10057000F701408151814217530710F48083918322
:10058000F801408151812417350710F4808391834D
:10059000CF5FF2E0EF0EF11C0E5F1F4FC83019F76E
:1005A0008091E30081110AC00F2EF8EEEF2EF0E0EB
:1005B000FF2EF02D00E610E0C0E0D5CF1092E30052
:1005C0000E94A7000E94310180EA90E00E94AC04E2
:1005D00008EE10E0C8EFD0E078016AE070E0F701C3
:1005E000819191917F010E94BB0489E00E94A8043F
:1005F000EC16FD0691F78AE00E94A80485EA90E0D7
:100600000E94AC040F2EF0E66F2EF0E07F2EF02D4E
:100610000F2EF0E7CF2EF0E0DF2EF02D73016AE011
:1006200070E0F701819191917F010E94BB0489E004
:100630000E94A804EC14FD0491F78AE00E94A8042B
:100640008AEA90E00E94AC040F2EF0E9EF2EF0E071
:10065000FF2EF02D57010F2EF0E6CF2EF0E0DF2E0B
:10066000F02D0F2EF8EE8F2EF0E09F2EF02DF401DE
:10067000219131914F01F601819191916F01820F8A
:10068000931F96958795F501819391935F016AE099
:1006900070E00E94BB0489E00E94A8048C169D06AD
:1006A00031F78AE00E94A8048FEA90E00E94AC042F
:1006B0000F2EF0E88F2EF0E09F2EF02D0F2EF0E998
:1006C000AF2EF0E0BF2EF02D0F2EF8EECF2EF0E083
:1006D000DF2EF02D0F2EFEE15F2EF02DF601819121
:1006E00091916F01F501419151915F01841B950B2F
:1006F000589E9001599E300D1124369527953695B8
:100700002795ABE7B4E10E94C60696958795840FBE
:10071000951FF401819391934F016AE070E00E946C
:10072000BB0489E00E94A804CC16DD06B9F68AE075
:100730000E94A80484EB90E00E94AC040F2EF0E726
:10074000AF2EF0E0BF2EF02D0F2EF0EA8F2EF0E04E
:100750009F2EF02D0F2EF0E6CF2EF0E0DF2EF02DA5
:100760000F2EFEE15F2EF02DF701419151917F0197
:10077000F601819191916F019A01281B390BC901F2
:10078000589E9001599E300D112436952795369527
:100790002795ABE7B4E10E94C60696958795FA01C6
:1007A000E81BF90BCF01F501819391935F016AE09A
:1007B00070E00E94BB0489E00E94A8048E149F048C
:1007C00099F68AE00E94A80489EB90E00E94AC04AC
:1007D0000F2EF8EFEF2EF0E0FF2EF02D0F2EF0E2AF
:1007E000CF2EFEE4DF2EF02DF801619171918F0183
:1007F000F301819191913F01681B790BC6010E9421
:10080000B206CB01F701619371937F016AE070E05A
:100810000E94BB0489E00E94A8040C171D0721F761
:100820008EEB90E00E94AC04DF91CF911F910F916D
:10083000FF90EF90DF90CF90BF90AF909F908F9000
:100840007F906F905F900895A79AA69AA59AA49A10
:100850008F9ABB9A8A988D980E9449000E949A04A8
:100860000E9482040E948C040E94DE002FEF83ED20
:1008700090E3215080409040E1F700C000000E94CA
:100880009C022FEF83ED90E3215080409040E1F7F0
:1008900000C000000E9405018091CA0090E00E9403
:1008A00096048091CA0090E00E9498040E945B0028
:1008B0008091CB009091CC00C297A4F48091CE009F
:1008C0009091CF008F3F910589F30E94460180915E
:1008D000D20090E00E9496048091D10090E00E94A6
:1008E0009804E4CF0E941C012FEF80E792E0215092
:1008F00080409040E1F700C000000E94310180E09C
:1009000090E0089583B7886483BF83B7806283BF14
:1009100083B7816083BF089585B5886485BD85B53B
:10092000806285BD85B5816085BD08958CBF0895C1
:1009300083BD089580B58F7B80BD599810BC87E634
:1009400089B98AB188618AB980B58E6880BD0895F9
:100950005D9BFECF8CB90895CF93DF93EC01888126
:10096000882331F021960E94A80489918111FBCF40
:10097000DF91CF910895CF93DF93CDB7DEB7609726
:100980000FB6F894DEBF0FBECDBFAB015D9BFECFAF
:10099000BE016F5F7F4F0E94D506CE0101960E9477
:1009A000AC0460960FB6F894DEBF0FBECDBFDF91EA
:1009B000CF9108955058BB27AA270E94F2040C94A7
:1009C000FA050E94EC0538F00E94F30520F039F496
:1009D0009F3F19F426F40C94E9050EF4E095E7FB2B
:1009E0000C94E305E92F0E940B0658F3BA1762072F
:1009F00073078407950720F079F4A6F50C942D066B
:100A00000EF4E0950B2EBA2FA02D0B01B901900129
:100A10000C01CA01A0011124FF27591B99F0593F6D
:100A200050F4503E68F11A16F040A22F232F342FB5
:100A30004427585FF3CF469537952795A795F04003
:100A40005395C9F77EF41F16BA0B620B730B840B18
:100A5000BAF09150A1F0FF0FBB1F661F771F881FD0
:100A6000C2F70EC0BA0F621F731F841F48F4879528
:100A700077956795B795F7959E3F08F0B0CF93951A
:100A8000880F08F09927EE0F9795879508950E9493
:100A9000BF0508F481E008950E9453056894B111E0
:100AA0000C942E0608950E94130688F09F5798F024
:100AB000B92F9927B751B0F0E1F0660F771F881F63
:100AC000991F1AF0BA95C9F714C0B13091F00E947D
:100AD0002D06B1E008950C942D06672F782F8827F6
:100AE000B85F39F0B93FCCF3869577956795B395A4
:100AF000D9F73EF490958095709561957F4F8F4F13
:100B00009F4F0895E89409C097FB3EF49095809517
:100B1000709561957F4F8F4F9F4F9923A9F0F92FC3
:100B200096E9BB279395F695879577956795B79541
:100B3000F111F8CFFAF4BB0F11F460FF1BC06F5F27
:100B40007F4F8F4F9F4F16C0882311F096E911C039
:100B5000772321F09EE8872F762F05C0662371F05A
:100B600096E8862F70E060E02AF09A95660F771F6E
:100B7000881FDAF7880F9695879597F90895990F4A
:100B80000008550FAA0BE0E8FEEF16161706E80757
:100B9000F907C0F012161306E407F50798F0621B78
:100BA000730B840B950B39F40A2661F0232B242B4D
:100BB000252B21F408950A2609F4A140A6958FEF6C
:100BC000811D811D089597F99F6780E870E060E0BE
:100BD00008959FEF80EC089500240A9416161706D6
:100BE00018060906089500240A941216130614061E
:100BF00005060895092E0394000C11F4882352F081
:100C0000BB0F40F4BF2B11F460FF04C06F5F7F4F38
:100C10008F4F9F4F089557FD9058440F551F59F01F
:100C20005F3F71F04795880F97FB991F61F09F3FD9
:100C300079F087950895121613061406551FF2CF02
:100C40004695F1DF08C0161617061806991FF1CF52
:100C500086957105610508940895E894BB27662779
:100C60007727CB0197F908950E94BF0508F48FEF0D
:100C700008950E944C060C94FA050E94EC0538F089
:100C80000E94F30520F0952311F00C94E3050C94D9
:100C9000E90511240C942E060E940B0670F3959F13
:100CA000C1F3950F50E0551F629FF001729FBB2763
:100CB000F00DB11D639FAA27F00DB11DAA1F649FFF
:100CC0006627B00DA11D661F829F2227B00DA11DB2
:100CD000621F739FB00DA11D621F839FA00D611D38
:100CE000221F749F3327A00D611D231F849F600D59
:100CF000211D822F762F6A2F11249F5750409AF082
:100D0000F1F088234AF0EE0FFF1FBB1F661F771F0D
:100D1000881F91505040A9F79E3F510580F00C94D8
:100D2000E3050C942E065F3FE4F3983ED4F38695DA
:100D300077956795B795F795E7959F5FC1F7FE2B78
:100D4000880F911D9695879597F90895991B79E0DD
:100D500004C0991F961708F0961B881F7A95C9F74B
:100D600080950895AA1BBB1B51E107C0AA1FBB1F9A
:100D7000A617B70710F0A61BB70B881F991F5A9527
:100D8000A9F780959095BC01CD010895A29FB0016F
:100D9000B39FC001A39F700D811D1124911DB29FAF
:100DA000700D811D1124911D08954532510520F4C7
:100DB000423010F00C94E006FB011082CB01089544
:100DC000BB274A3031F4992322F4BDE290958195F6
:100DD0009F4F0C94EC06BB27FB015527AA27880FD1
:100DE000991FAA1FA41710F0A41B83955051B9F79F
:100DF000A05DAA3308F0A95DA193009779F7B1111E
:100E0000B1931192CB010C940507DC01FC01672F13
:100E100071917723E1F7329704C07C916D937083D1
:0E0E20006291AE17BF07C8F30895F894FFCF94
:100E2E00FF03FF03FF03FF03FF03FF03FF03FF03A4
:100E3E007101E601B001F101DB01CB01F701B60151
:100E4E002302AC026A02C102A7029702D3027C02FD
:100E5E00BC02BC02BC02BC02BC02BC02BC02BC0294
:100E6E004D415809004D494E09005448520900554C
:100E7E00544809004C5448090050524F09000A0AC0
:060E8E000A0A0A0A000036
:00000001FF
