:100000000C942A000C9447000C9447000C94470071
:100010000C9447000C9447000C9447000C94330157
:100020000C9447000C9447000C9447000C94470034
:100030000C9447000C9447000C9447000C94470024
:100040000C9447000C9447000C9447000C94470014
:100050000C94470011241FBECFE5D8E0DEBFCDBF12
:1000600010E0A0E6B0E0ECE0F1E102C005900D92F6
:10007000AE3CB107D9F721E0AEECB0E001C01D9273
:10008000A131B207E1F70E9485040C9484080C9416
:1000900000003E9A379A86B1876086B9089597B175
:1000A000907E97B997B1892B87B9369A3699FECF4A
:1000B00084B195B108959F92AF92BF92CF92DF9293
:1000C000EF92FF920F931F93CF93DF931092D7007D
:1000D0001092D3001092D4001092D2001092D1004E
:1000E0001092D0000F2EF5E9CF2EF0E0DF2EF02D8C
:1000F0000FEF1FEF0F2EFEEFFF2EF02DD1E0C0E02F
:100100000F2EF5E0BF2EF02DA12CE12C9924939415
:1001100006C0CF5FDF5FF394F3940F5F1F4F8C2F08
:100120000E944F00F601219131916F012817390784
:10013000F0F4C11103C09092D300EBCFC73021F48B
:1001400081E08093D40015C08B2D90E0081719072B
:1001500014F4B02E06C08A2D90E0801791070CF49D
:10016000A02EEF0C8091D7008F5F8093D700D830FE
:1001700080F22091D700422F50E08A2D90E08B1919
:10018000910901964817590711F5F5E0AF1206C01D
:1001900081E08B1580F48093D10011C0B1100BC0A9
:1001A000E3E0EA1540F081E08093D0008091D10037
:1001B000813069F408C08091D100813041F4809190
:1001C000D000813021F41092D1001092D0008091A3
:1001D000D300813051F48091D400813031F41092F9
:1001E000D3001092D4008093D2008E2D622F0E94F3
:1001F00015088093D800263071F48091D2008130A8
:1002000051F48091D5009091D60001969093D6003C
:100210008093D50004C01092D6001092D500DF91D3
:10022000CF911F910F91FF90EF90DF90CF90BF90F3
:10023000AF909F9008959093EE008093ED0089B762
:10024000806189BF78941DBC1CBC89EF90E09BBD88
:100250008ABD8EB58B608EBD08951EBC19BEF89404
:100260001DBC1CBC08951F920F920FB60F92112453
:100270002F933F938F939F938091CF00811120C044
:100280008091EF009091F00001969093F0008093A0
:10029000EF001DBC1CBC2091EF003091F00080915C
:1002A000ED009091EE002817390750F08EB58EBD05
:1002B00081E08093EC001092F0001092EF00F8942F
:1002C0009F918F913F912F910F900FBE0F901F9094
:1002D000189580E090E00E94330680E090E00E9454
:1002E0003506AF9AAE98AD9AAC98089580E090E04C
:1002F0000E94330680E090E00E943506AF98AE9AE7
:10030000AD9AAC98089580E090E00E94330680E0BA
:1003100090E00E943506AF9AAE98AD98AC9A0895D9
:100320008F929F92AF92BF92CF92DF92EF92FF9205
:100330006091D80070E065507109072E000C880BA1
:10034000990B0E941C076B017C016093E80070937D
:10035000E9008093EA009093EB002091E400309153
:10036000E5004091E6005091E7000E9477064B01BE
:100370005C01609160007091610080E090E00E94FB
:100380001A079B01AC01C501B4010E94A8074B01EB
:100390005C01609162007091630080E090E00E94D7
:1003A0001A07A70196010E94A8079B01AC01C5018D
:1003B000B4010E9478066093E0007093E10080939E
:1003C000E2009093E300C092E400D092E500E09256
:1003D000E600F092E7000E94E406862F972F262F72
:1003E000372F3093DF002093DE0020916400422FEE
:1003F00050E048175907ECF4621B261718F0609379
:10040000D90002C02093D9005093DF004093DE0052
:100410000E9483018091D90090E09093DB0080934B
:10042000DA008091640090E09093DD008093DC001E
:1004300055C0EE27FF27E41BF50B8E179F07F4F43A
:10044000620F6195261718F06093D90002C02093BF
:10045000D900F093DF00E093DE000E9476018091E6
:10046000640090E09093DB008093DA008091D900E3
:1004700090E09093DD008093DC0030C09923C4F0BD
:10048000841795075CF50E9469018091640090E0F3
:100490002091DE003091DF00AC01421B530B5093E2
:1004A000DB004093DA009093DD008093DC0016C0FF
:1004B000E817F9079CF40E9469018091640090E0BC
:1004C0009093DB008093DA002091DE003091DF0012
:1004D000820F931F9093DD008093DC00FF90EF90DC
:1004E000DF90CF90BF90AF909F908F90089580E065
:1004F00090E00E94330680E090E00E943506AF9ABB
:10050000AE98AD9AAC988091640090E00E9433065A
:100510008091640090E00E943506089580E090E0AC
:100520000E94330680E090E00E943506AF98AE9AB4
:10053000AD98AC9A82E890E00E94330682E890E0A1
:100540000E94350608950E948E028FE891E001977F
:10055000F1F700C0000080E090E00E94330680E0E8
:1005600090E00E943506AF98AE98AD98AC9808958B
:10057000CF93DF93C82F80E090E00E94330680E0A5
:1005800090E00E943506AF9AAE98AD98AC9AD0E054
:10059000CE010E943306CE010E943506DF91CF9135
:1005A00008955F926F927F928F929F92AF92BF92C7
:1005B000CF92DF92EF92FF920F931F93CF93DF932F
:1005C00080ED97E00E941B018AEA0E94B8021DC0DC
:1005D0008C2F0E944F00282F392FF7014081518125
:1005E0004217530710F480839183F80140815181B1
:1005F0002417350710F480839183CF5FF2E0EF0E6C
:10060000F11C0E5F1F4FC83019F78091EC0081116B
:100610000AC00F2EF1EFEF2EF0E0FF2EF02D05E6D1
:1006200010E0C0E0D5CF1092EC000E942D010E9496
:10063000A30288EA90E00E94490601EF10E0C1E0C1
:10064000D1E078016AE070E0F701819191917F013A
:100650000E94580689E00E944506EC16FD0691F7B7
:100660008AE00E9445068DEA90E00E9449060F2E1E
:10067000F5E66F2EF0E07F2EF02D0F2EF5E7CF2E52
:10068000F0E0DF2EF02D73016AE070E0F701819158
:1006900091917F010E94580689E00E944506EC1462
:1006A000FD0491F78AE00E94450682EB90E00E94EB
:1006B00049060F2EF5E9EF2EF0E0FF2EF02D470151
:1006C0000F2EF5E6AF2EF0E0BF2EF02D0F2EF1EF3E
:1006D000CF2EF0E0DF2EF02DF601819191916F0188
:1006E000F501419151915F01841B950B9C01220FF3
:1006F000331F220F331F220F331F281B390BADEC82
:10070000BCEC0E94350896958795969587959695A9
:100710008795840F951FF401819391934F016AE0AF
:1007200070E00E94580689E00E944506CC16DD065E
:1007300099F68AE00E94450687EB90E00E94490600
:100740000F2EF5E88F2EF0E09F2EF02D0F2EF5E9FD
:10075000AF2EF0E0BF2EF02D0F2EF1EFCF2EF0E0F8
:10076000DF2EF02D0F2EFEE15F2EF02DF601819190
:1007700091916F01F501419151915F01841B950B9E
:10078000589E9001599E300D112436952795369527
:100790002795ABE7B4E10E94350896958795840FBD
:1007A000951FF401819391934F016AE070E00E94DC
:1007B000580689E00E944506CC16DD06B9F68AE0A7
:1007C0000E9445068CEB90E00E9449060F2EF5E74B
:1007D000AF2EF0E0BF2EF02D0F2EF5EA8F2EF0E0B9
:1007E0009F2EF02D0F2EF5E6CF2EF0E0DF2EF02D10
:1007F0000F2EFEE15F2EF02DF701419151917F0107
:10080000F601819191916F019A01281B390BC90161
:10081000589E9001599E300D112436952795369596
:100820002795ABE7B4E10E94350896958795FA01C4
:10083000E81BF90BCF01F501819391935F016AE009
:1008400070E00E94580689E00E9445068E149F04BD
:1008500099F68AE00E94450681EC90E00E944906E4
:100860000F2EF1E0EF2EF1E0FF2EF02D0F2EF0E233
:10087000CF2EFEE4DF2EF02DF801619171918F01F2
:10088000F301819191913F01681B790BC6010E9490
:100890002108CB01F701619371937F016AE070E059
:1008A0000E94580689E00E9445060C171D0721F793
:1008B00086EC90E00E944906DF91CF911F910F9145
:1008C000FF90EF90DF90CF90BF90AF909F908F9070
:1008D0007F906F905F900895CF93DF93C82F80E053
:1008E00090E00E94330680E090E00E943506AF98C9
:1008F000AE9AAD9AAC98D0E0CE010E943306CE01FC
:100900000E943506DF91CF9108958C9A8D9AB99AFD
:100910008B988A98BA98A79AA69AA59AA49A8F9A19
:10092000BB9A9498949A2FEF89E698E121508040E1
:100930009040E1F700C0000094980E9449000E9496
:1009400037060E941F060E9429060E9469012FEFA8
:1009500083ED90E3215080409040E1F700C000001B
:100960000E94D1022FEF8BE792E921508040904006
:10097000E1F700C0000081E08093CE008093CF00BB
:100980000E9477020E945B008091D300813009F0C1
:1009900065C08091D8008450833008F0C9C00E949F
:1009A0008E028FE39CE90197F1F700C000000E94DE
:1009B000770284EB90E00E94330684EB90E00E9483
:1009C00035060CC00E945B008091D200813009F492
:1009D00025C18091D400813009F41BC18091D300DE
:1009E000813081F38091D200811138C08091D40090
:1009F000811109C19FEF27EE83E091502040804094
:100A0000E1F700C000008CE80E946C048091D300E4
:100A1000811109C00E945B008091D3008823D1F32B
:100A200002C00E945B008091D7008823D1F380919F
:100A3000D80083508430A8F70E9477029FEF29EFF7
:100A400080E0915020408040E1F700C0000010920B
:100A5000D2001092D3001092D400C1C08091D40073
:100A6000813009F065C08091D8008450833008F04F
:100A70005FC00E948E028FE39CE90197F1F700C0EE
:100A800000000E94770284EB90E00E94330684EB22
:100A900090E00E9435060CC00E945B008091D2005D
:100AA000813009F44AC08091D300813009F4C2C07A
:100AB0008091D400813081F38091D200811138C0BF
:100AC0008091D30081118BC09FEF27EE83E091507E
:100AD00020408040E1F700C000008CE80E94B8028E
:100AE0008091D400811109C00E945B008091D400E4
:100AF0008823D1F302C00E945B008091D700882335
:100B0000D1F38091D80084508430A8F70E947702F6
:100B10009FEF29EF80E0915020408040E1F700C036
:100B200000001092D2001092D3001092D40057C04F
:100B30008091D200813009F052C00E9477028091EA
:100B4000D2008130A1F48091D5009091D600883CEC
:100B500091056CF40E945B008091D200813039F4E1
:100B60008091D5009091D600883C91059CF39FEF31
:100B700021EE84E0915020408040E1F700C0000069
:100B80008091D5009091D600883C910544F10E9457
:100B90008E028FE39CE90197F1F700C000000E94EC
:100BA000A3029498949A9FEF27EA81E691502040FF
:100BB0008040E1F700C0000094988091D700863013
:100BC00071F48091D200813051F40E945B008091D9
:100BD000D700863021F48091D2008130B1F380912A
:100BE000D8008F3F09F4CECE0E9490018091DC00A6
:100BF0009091DD000E9433068091DA009091DB0035
:100C00000E943506BFCE813051F70EC08091D400CE
:100C1000FACF8091D2008823C9F320CF8091D400ED
:100C2000813009F08ACF1FCF8091D8008450833063
:100C3000B0F61FCF8091D200882389F279CF83B795
:100C4000886483BF83B7806283BF83B7816083BFBB
:100C5000089585B5886485BD85B5806285BD85B5F7
:100C6000816085BD08958CBF089583BD089580B5CA
:100C70008F7B80BD599810BC87E689B98AB188619D
:100C80008AB980B58E6880BD08955D9BFECF8CB912
:100C90000895CF93DF93EC018881882331F021966A
:100CA0000E94450689918111FBCFDF91CF91089574
:100CB000CF93DF93CDB7DEB764970FB6F894DEBF5E
:100CC0000FBECDBFAB015D9BFECFBE016F5F7F4FFF
:100CD0000E944408CE0101960E94490664960FB610
:100CE000F894DEBF0FBECDBFDF91CF91089550586D
:100CF000BB27AA270E948F060C946E070E946007EC
:100D000038F00E94670720F039F49F3F19F426F469
:100D10000C945D070EF4E095E7FB0C945707E92F60
:100D20000E947F0758F3BA17620773078407950775
:100D300020F079F4A6F50C94A1070EF4E0950B2EA3
:100D4000BA2FA02D0B01B90190010C01CA01A0011D
:100D50001124FF27591B99F0593F50F4503E68F178
:100D60001A16F040A22F232F342F4427585FF3CFB9
:100D7000469537952795A795F0405395C9F77EF48A
:100D80001F16BA0B620B730B840BBAF09150A1F0D3
:100D9000FF0FBB1F661F771F881FC2F70EC0BA0F59
:100DA000621F731F841F48F4879577956795B795E1
:100DB000F7959E3F08F0B0CF9395880F08F09927DC
:100DC000EE0F9795879508950E94EB066894B111F0
:100DD0000C94A20708950E94870788F09F5798F007
:100DE000B92F9927B751B0F0E1F0660F771F881F30
:100DF000991F1AF0BA95C9F714C0B13091F00E944A
:100E0000A107B1E008950C94A107672F782F8827D8
:100E1000B85F39F0B93FCCF3869577956795B39570
:100E2000D9F73EF490958095709561957F4F8F4FDF
:100E30009F4F0895E89409C097FB3EF490958095E4
:100E4000709561957F4F8F4F9F4F9923A9F0F92F90
:100E500096E9BB279395F695879577956795B7950E
:100E6000F111F8CFFAF4BB0F11F460FF1BC06F5FF4
:100E70007F4F8F4F9F4F16C0882311F096E911C006
:100E8000772321F09EE8872F762F05C0662371F027
:100E900096E8862F70E060E02AF09A95660F771F3B
:100EA000881FDAF7880F9695879597F9089597F92F
:100EB0009F6780E870E060E008959FEF80EC089500
:100EC00000240A9416161706180609060895002429
:100ED0000A9412161306140605060895092E0394A3
:100EE000000C11F4882352F0BB0F40F4BF2B11F417
:100EF00060FF04C06F5F7F4F8F4F9F4F089557FD76
:100F00009058440F551F59F05F3F71F04795880F77
:100F100097FB991F61F09F3F79F08795089512160E
:100F200013061406551FF2CF4695F1DF08C01616BA
:100F300017061806991FF1CF86957105610508946B
:100F40000895E894BB2766277727CB0197F9089582
:100F50000E94BB070C946E070E94600738F00E9445
:100F6000670720F0952311F00C9457070C945D0748
:100F700011240C94A2070E947F0770F3959FC1F380
:100F8000950F50E0551F629FF001729FBB27F00D37
:100F9000B11D639FAA27F00DB11DAA1F649F66278C
:100FA000B00DA11D661F829F2227B00DA11D621FDB
:100FB000739FB00DA11D621F839FA00D611D221F95
:100FC000749F3327A00D611D231F849F600D211D79
:100FD000822F762F6A2F11249F5750409AF0F1F0FC
:100FE00088234AF0EE0FFF1FBB1F661F771F881F65
:100FF00091505040A9F79E3F510580F00C9457073F
:101000000C94A2075F3FE4F3983ED4F3869577955E
:101010006795B795F795E7959F5FC1F7FE2B880F0A
:10102000911D9695879597F90895991B79E004C0CD
:10103000991F961708F0961B881F7A95C9F7809517
:101040000895AA1BBB1B51E107C0AA1FBB1FA6170F
:10105000B70710F0A61BB70B881F991F5A95A9F761
:1010600080959095BC01CD010895A29FB001B39FDA
:10107000C001A39F700D811D1124911DB29F700DA1
:10108000811D1124911D08954532510520F44230EF
:1010900010F00C944F08FB011082CB010895BB2780
:1010A0004A3031F4992322F4BDE2909581959F4F07
:1010B0000C945B08BB27FB015527AA27880F991FB3
:1010C000AA1FA41710F0A41B83955051B9F7A05D77
:1010D000AA3308F0A95DA193009779F7B111B193F4
:1010E0001192CB010C947408DC01FC01672F719103
:1010F0007723E1F7329704C07C916D9370836291FE
:0C110000AE17BF07C8F30895F894FFCFA6
:10110C002C014100FFFF03FF03FF03FF03FF03FF5D
:10111C0003FF03FF037101E601B001F101DB01CB19
:10112C0001F701B6012302AC026A02C102A70297C1
:10113C0002D3027C0220032003200320032003207F
:10114C0003200320030909004D415809004D494E65
:10115C000900544852090055544809004C54480998
:0E116C000050524F09000A0A0A0A0A0A00003F
:00000001FF
