:100000000C942A000C94A7070C94DA070C94470070
:100010000C9447000C9447000C9447000C94470044
:100020000C9447000C9447000C9447000C9425084E
:100030000C9447000C9447000C9447000C94470024
:100040000C9447000C9447000C9447000C94470014
:100050000C94470011241FBECFE5D8E0DEBFCDBF12
:1000600010E0A0E6B0E0E4E5F4E102C005900D92F6
:10007000A837B107D9F720E0A8E7B0E001C01D928A
:10008000A63AB207E1F70E9426060C94280A0C94BF
:1000900000003E9A379A86B1876086B9089597B175
:1000A000907E97B997B1892B87B9369A3699FECF4A
:1000B00084B195B108958091A2009091A30090938E
:1000C000A1008093A0008091A4009091A500892BAD
:1000D00049F48091A0009091A1009093A300809397
:1000E000A20008958091A4009091A5008F3F9105F2
:1000F00029F41092A3001092A20008958091A40008
:100100009091A500499739F18091A4009091A500A4
:10011000099709F18091A4009091A5004197D9F029
:100120008091A4009091A500C197A9F08091A400AE
:100130009091A5008137910571F08091A400909174
:10014000A5008136910539F08091A4009091A50019
:100150008336910539F488E790E09093A30080936B
:10016000A20008958091A4009091A5000B9709F436
:100170004DC08091A4009091A500439709F446C01A
:100180008091A4009091A5004B9709F43FC0809105
:10019000A4009091A5000A97C9F18091A4009091C4
:1001A000A500429799F18091A4009091A50087370E
:1001B000910561F18091A4009091A500833791058C
:1001C00029F18091A4009091A500C797F9F0809142
:1001D000A4009091A5004D97C9F08091A400909142
:1001E000A5008736910591F08091A4009091A5001B
:1001F0000D9761F08091A4009091A500C99731F00E
:100200008091A4009091A500C39739F488E790E00D
:100210009093A3008093A20008958091A4009091F0
:10022000A5000F9761F08091A4009091A5004F97D1
:1002300031F08091A4009091A500CF9739F48DE71B
:1002400090E09093A3008093A20008958091A40071
:100250009091A500019739F486E490E09093A30073
:100260008093A20008958091A4009091A500039727
:1002700039F48CE390E09093A3008093A20008955A
:100280008091A4009091A500029739F08091A4007C
:100290009091A5008D3F910539F48EE190E0909307
:1002A000A3008093A20008958091A4009091A500DE
:1002B000069739F08091A4009091A500893F91059F
:1002C00039F484E190E09093A3008093A200089514
:1002D0008091A4009091A500049731F08091A40032
:1002E0009091A5000E9739F48FE090E09093A300D1
:1002F0008093A20008958091A4009091A5008B3F67
:10030000910581F48FE090E09093A3008093A20088
:1003100080917C00811135C280917E008F5F809337
:100320007E0008958091A4009091A5000C9739F467
:100330008AE090E09093A3008093A20008958091BA
:10034000A4009091A500833F910581F48AE090E09C
:100350009093A3008093A20080917C00811111C230
:1003600080917E008F5F80937E0008958091A4002D
:100370009091A500089731F08091A4009091A5007C
:100380004C9739F485E090E09093A3008093A2000D
:1003900008958091A4009091A500873F910581F474
:1003A00085E090E09093A3008093A20080917C0070
:1003B0008111E7C180917E008F5F80937E00089558
:1003C0008091A4009091A500489729F41092A30071
:1003D0001092A20008958091A4009091A500873EFC
:1003E000910571F41092A3001092A20080917C00FC
:1003F0008111C7C180917E008F5F80937E00089538
:100400008091A4009091A5008E3E9105E9F1809124
:10041000A4009091A50087379105B1F18091A400C7
:100420009091A5008636910579F18091A400909174
:10043000A5008939910541F18091A4009091A50012
:100440008E37910509F18091A4009091A500CC9779
:10045000D9F08091A4009091A5008C379105A1F06E
:100460008091A4009091A500CE9771F08091A40096
:100470009091A5008737910539F08091A400909163
:10048000A5008E3E910529F41092A3001092A200BF
:1004900008958091A4009091A500409731F080913B
:1004A000A4009091A500C89739F48BEF9FEF90932B
:1004B000A3008093A20008958091A4009091A500CC
:1004C0008F3E910581F48BEF9FEF9093A300809373
:1004D000A20080917C00811154C180917E008F5FC9
:1004E00080937E0008958091A4009091A500C0970C
:1004F00039F486EF9FEF9093A3008093A2000895B4
:100500008091A4009091A5008F3C910581F486EF25
:100510009FEF9093A3008093A20080917C008111B3
:1005200030C180917E008F5F80937E00089580911E
:10053000A4009091A500809739F08091A40090913B
:10054000A5008037910539F481EF9FEF9093A300C8
:100550008093A20008958091A4009091A5008F3D02
:10056000910581F481EF9FEF9093A3008093A20007
:1005700080917C00811105C180917E008F5F809306
:100580007E0008958091A4009091A5008036910589
:1005900039F08091A4009091A5008F39910539F42C
:1005A0008CEE9FEF9093A3008093A200089580911A
:1005B000A4009091A5008034910539F08091A400A9
:1005C0009091A5008F3B910539F482EE9FEF9093B7
:1005D000A3008093A20008958091A4009091A500AB
:1005E000803C910539F484EC9FEF9093A3008093B5
:1005F000A20008958091A4009091A50080389105F3
:1006000039F48AEB9FEF9093A3008093A2000895A2
:100610008091A4009091A500803F910571F0809198
:10062000A4009091A500883F910539F08091A40025
:100630009091A5008C3F910539F483E89FEF90934A
:10064000A3008093A20008958091A4009091A5003A
:10065000883D910509F457C08091A4009091A500B0
:10066000803D910509F44FC08091A4009091A500B0
:10067000883C910509F447C08091A4009091A500A1
:100680008035910509F43FC08091A4009091A500A8
:1006900088349105C1F18091A4009091A5008E3E0F
:1006A000910589F18091A4009091A5008E3C91055F
:1006B00051F18091A4009091A5008C3E910519F113
:1006C0008091A4009091A500883B9105E1F0809174
:1006D000A4009091A500863E9105A9F08091A40008
:1006E0009091A500803B910571F08091A4009091BC
:1006F000A5008C39910539F08091A4009091A50056
:100700008C3C910539F488E89FEF9093A300809387
:10071000A20008958091A4009091A50088399105C8
:1007200051F18091A4009091A5008039910519F1B3
:100730008091A4009091A50088389105E1F0809106
:10074000A4009091A5008C389105A9F08091A40097
:100750009091A5008E38910571F08091A400909140
:10076000A5008638910539F08091A4009091A500EC
:10077000863C910531F488E89FEF9093A300809325
:10078000A200089580E090E00E94500880E090E090
:100790000E945208AF9AAE98AD9AAC98089580E046
:1007A00090E00E94500880E090E00E945208AF98CC
:1007B000AE9AAD9AAC98089580E090E00E945008FF
:1007C00080E090E00E945208AF9AAE98AD98AC9A43
:1007D00008958F929F92AF92BF92CF92DF92EF9245
:1007E000FF920F931F93CF93C0918400C195C09344
:1007F00095000C2F0C2E000C110B60919200709143
:100800009300600F711F772314F46F5F7F4F7B019C
:10081000F594E794F0929300E09292006C2F0C2EE6
:10082000000C770B880B990B0E940709209164003C
:100830003091650040916600509167000E949309D5
:100840004B015C01B701FF0C880B990B0E94070953
:10085000209178003091790040917A0050917B008E
:100860000E9493099B01AC01C501B4010E94630879
:100870006B017C0180919400B801681B710987FDB0
:100880007395072E000C880B990B0E940709209185
:1008900060003091610040916200509163000E94BD
:1008A00093099B01AC01C701B6010E9463086093E4
:1008B0008E0070938F008093900090939100C0936E
:1008C00094000E94CF0870938D0060938C00693C67
:1008D0007105CCF0685C693C18F46093890003C032
:1008E00088EC8093890088EC90E090938D00809351
:1008F0008C000E94CF038091890080938B0088EC4C
:1009000080938A0040C068334FEF7407DCF428E31B
:10091000822F861B893C18F48093890003C088ECE1
:100920008093890088E39FEF90938D0080938C00E3
:100930000E94DC0388EC80938B0080918900809377
:100940008A0021C09B0129533F4F273C310558F4B1
:100950000E94C20388EC80938B0080918C008853A6
:1009600080938A0010C061507109673C710558F48A
:100970000E94C20388EC90918C00282F291B2093A1
:100980008B0080938A00CF911F910F91FF90EF9081
:10099000DF90CF90BF90AF909F908F90089580E0B0
:1009A00090E00E94500880E090E00E945208AF9AC8
:1009B000AE98AD9AAC9888EC90E00E94500888EC14
:1009C00090E00E94520808955F926F927F928F92FA
:1009D0009F92AF92BF92CF92DF92EF92FF920F93CE
:1009E0001F93CF93DF931092A5001092A400109252
:1009F00085001092840010928100109288000F2EC2
:100A0000F8E7CF2EF0E0DF2EF02D06E410E00F2EF9
:100A1000F7E0FF2EF02DC0E0D0E0E12CB12C612CEE
:100A2000712C812C99249394A12C552453948F2DAF
:100A30000E944F00F601329122916F012817390769
:100A4000B8F0B02E8091840090918500800F911FA6
:100A50009093850080938400809181008F5F8093C4
:100A60008100E11008C0602EE52C892D9A2D05C06B
:100A7000872D982D02C0892D9A2D2091A4003091A8
:100A8000A5000C2E02C0880F991F0A94E2F7822B52
:100A9000932B9093A5008093A4002196FA9404517F
:100AA0001109C830D10519F68091A4009091A500D4
:100AB000892B99F4809180008051843518F481E06D
:100AC00080937D001092800080918200909183003D
:100AD000909385008093840062C08091A4009091DF
:100AE000A5008F3F9105E9F480917F00811105C039
:100AF000809180008F5F809380001092850010921B
:100B00008400109288000E94CF042FEF41EE84E011
:100B1000215040408040E1F700C000000E94E40402
:100B20003EC010928000262D2B1930918100632F3A
:100B300070E080918400909185000E94000A70937B
:100B4000850060938400709383006093820084EC3E
:100B5000820F893220F587E62802812D11248595A0
:100B60008595859527FD8395831B8F3F59F481E0FB
:100B700080938800809187008F5F80938700109218
:100B8000860015C0833058F482E08093880010926C
:100B90008700809186008F5F8093860008C08091D7
:100BA0008800811104C01092870010928600DF91A6
:100BB000CF911F910F91FF90EF90DF90CF90BF905A
:100BC000AF909F908F907F906F905F90089580E09E
:100BD00090E00E94500880E090E00E945208AF9898
:100BE000AE9AAD98AC9A82E890E00E94500882E8F4
:100BF00090E00E945208089580E090E00E94500822
:100C000080E090E00E945208AF9AAE98AD98AC9AFE
:100C100086E990E00E94500886E990E00E94520820
:100C2000089580E090E00E94500880E090E00E94EB
:100C30005208AF98AE9AAD9AAC9886E990E00E94BF
:100C4000500886E990E00E94520808958C9A8D9A87
:100C50008B988A98A79AA69AA59AA49A8F9ABB9AD3
:100C60000E9449000E9454080E943C080E944608C5
:100C70000E94C2030E94CF0488EC90E00E945008BA
:100C800088EC90E00E9452080E94CF040E94E40485
:100C90000E945B008091A2009091A300883791058B
:100CA00009F040C036C0CF5F0E94E4040E945B00A0
:100CB0008091A4009091A5008F3F910509F489C00F
:100CC000C53140F10E94E7052FEF80E792E0215007
:100CD00080409040E1F700C000000E94FC052FEF2B
:100CE00085EA9EE0215080409040E1F700C000007E
:100CF0008091A2009091A300C39764F00E94E40445
:100D00000E945B008091A2009091A300C397B4F76A
:100D100001C0C0E08091A2009091A30088379105A6
:100D200011F257C08091A2009091A30088389F4F84
:100D300009F04FC045C0CF5F0E94E4040E945B00F1
:100D40008091A4009091A5008F3F910509F441C0C6
:100D50008091A2009091A30044973CF48091A2005E
:100D60009091A3008D3E9F4FA4F5C53150F10E9494
:100D7000E7058FEF90E722E0815090402040E1F7B7
:100D800000C000000E9411068FEF95EA2EE081500E
:100D900090402040E1F700C000008091A2009091B7
:100DA000A3008E3C9F4F6CF40E94E4040E945B0001
:100DB0008091A2009091A3008E3C9F4FACF301C0A4
:100DC000C0E08091A2009091A30088389F4F09F461
:100DD000B2CF8091A2009091A3008D37910509F0C8
:100DE00040C036C0CF5F0E94E4040E945B00809147
:100DF000A4009091A5008F3F910509F47AC0CB30F3
:100E000040F10E94E7058FEF90E722E0815090408B
:100E10002040E1F700C000000E94FC058FEF93EC3A
:100E200029E0815090402040E1F700C0000080910F
:100E3000A2009091A300C39764F00E94E4040E9472
:100E40005B008091A2009091A300C397B4F701C00A
:100E5000C0E08091A2009091A3008D37910511F21E
:100E600048C08091A2009091A30083389F4F09F061
:100E700040C037C0CF5F0E94E4040E945B008091B5
:100E8000A4009091A5008F3F910599F1CB3050F1CE
:100E90000E94E7058FEF90E722E0815090402040CC
:100EA000E1F700C000000E9411068FEF93EC29E0EB
:100EB000815090402040E1F700C000008091A200E6
:100EC0009091A3008E3C9F4F6CF40E94E4040E941A
:100ED0005B008091A2009091A3008E3C9F4FACF3E9
:100EE00001C0C0E08091A2009091A30083389F4F81
:100EF00009F28091A4009091A5008F3F910521F403
:100F00000E94E4040E945B008091A4009091A500DF
:100F10008131914059F40E94E4040E945B00809169
:100F2000A4009091A50081319140A9F38091A40083
:100F30009091A5000E94E90380918B0090E00E94AF
:100F4000500880918A0090E00E9452089FCE1F9224
:100F50000F920FB60F9211248F939F9380919C0054
:100F600090919D00892B51F48EB582608EBD81E0F9
:100F700090E090939D0080939C0015C080919C0010
:100F800090919D00019779F41EBC8CB59DB5969506
:100F9000879590939F0080939E001DBC1CBC10926F
:100FA0009D0010929C009F918F910F900FBE0F900B
:100FB0001F9018951F920F920FB60F9211242F9326
:100FC0003F934F935F938F939F938091980090915D
:100FD0009900892B51F483B7836083BF81E090E04F
:100FE000909399008093980025C0809198009091EB
:100FF00099000197F9F413BE22B7409196005091E1
:1010000097003FEF349FC001359F900D1124820F50
:10101000911D880F991F880F991F90939B008093B3
:101020009A00109297001092960012BE10929900AA
:10103000109298009F918F915F914F913F912F91C6
:101040000F900FBE0F901F9018951F920F920FB622
:101050000F9211248F939F93809196009091970007
:10106000019690939700809396009F918F910F9097
:101070000FBE0F901F90189583B7886483BF83B706
:10108000806283BF83B7816083BF089585B588641C
:1010900085BD85B5806285BD85B5816085BD0895B6
:1010A0008CBF089583BD089580B58F7B80BD59980E
:1010B00010BC87E689B98AB188618AB980B58E6823
:1010C00080BD08955058BB27AA270E947A080C9427
:1010D00059090E944B0938F00E94520920F039F456
:1010E0009F3F19F426F40C9448090EF4E095E7FBB1
:1010F0000C944209E92F0E946A0958F3BA17620753
:1011000073078407950720F079F4A6F50C948C09F1
:101110000EF4E0950B2EBA2FA02D0B01B901900112
:101120000C01CA01A0011124FF27591B99F0593F56
:1011300050F4503E68F11A16F040A22F232F342F9E
:101140004427585FF3CF469537952795A795F040EC
:101150005395C9F77EF41F16BA0B620B730B840B01
:10116000BAF09150A1F0FF0FBB1F661F771F881FB9
:10117000C2F70EC0BA0F621F731F841F48F4879511
:1011800077956795B795F7959E3F08F0B0CF939503
:10119000880F08F09927EE0F9795879508950E947C
:1011A000D6086894B1110C948D0908950E947209B3
:1011B00088F09F5798F0B92F9927B751B0F0E1F018
:1011C000660F771F881F991F1AF0BA95C9F714C0C8
:1011D000B13091F00E948C09B1E008950C948C0913
:1011E000672F782F8827B85F39F0B93FCCF3869501
:1011F00077956795B395D9F73EF49095809570955E
:1012000061957F4F8F4F9F4F0895E89409C097FBDA
:101210003EF490958095709561957F4F8F4F9F4FCD
:101220009923A9F0F92F96E9BB279395F695879511
:1012300077956795B795F111F8CFFAF4BB0F11F4D4
:1012400060FF1BC06F5F7F4F8F4F9F4F16C088237B
:1012500011F096E911C0772321F09EE8872F762FB1
:1012600005C0662371F096E8862F70E060E02AF0F2
:101270009A95660F771F881FDAF7880F96958795DE
:1012800097F9089597F99F6780E870E060E0089506
:101290009FEF80EC089500240A941616170618068E
:1012A0000906089500240A9412161306140605066A
:1012B0000895092E0394000C11F4882352F0BB0FFB
:1012C00040F4BF2B11F460FF04C06F5F7F4F8F4F5E
:1012D0009F4F089557FD9058440F551F59F05F3F99
:1012E00071F04795880F97FB991F61F09F3F79F048
:1012F00087950895121613061406551FF2CF4695CA
:10130000F1DF08C0161617061806991FF1CF86954B
:101310007105610508940895E894BB27662777272F
:10132000CB0197F908950E94A6090C9459090E94CF
:101330004B0938F00E94520920F0952311F00C94CB
:1013400042090C94480911240C948D090E946A09E1
:1013500070F3959FC1F3950F50E0551F629FF00108
:10136000729FBB27F00DB11D639FAA27F00DB11D21
:10137000AA1F649F6627B00DA11D661F829F2227AA
:10138000B00DA11D621F739FB00DA11D621F839F31
:10139000A00D611D221F749F3327A00D611D231F07
:1013A000849F600D211D822F762F6A2F11249F5755
:1013B00050409AF0F1F088234AF0EE0FFF1FBB1F58
:1013C000661F771F881F91505040A9F79E3F510517
:1013D00080F00C9442090C948D095F3FE4F3983E31
:1013E000D4F3869577956795B795F795E7959F5FC1
:1013F000C1F7FE2B880F911D9695879597F9089553
:1014000097FB072E16F4009407D077FD09D00E94B1
:10141000140A07FC05D03EF4909581959F4F0895DE
:10142000709561957F4F0895AA1BBB1B51E107C0C2
:10143000AA1FBB1FA617B70710F0A61BB70B881F64
:10144000991F5A95A9F780959095BC01CD010895F3
:04145000F894FFCF3E
:10145400000088410000A0402602580258025802A9
:08146400580258025802C201AF
:00000001FF
