:100000000C942A000C941B030C944E030C9499033B
:100010000C9447000C94E8030C9447000C944700A0
:100020000C9447000C9447000C9447000C94FF0379
:100030000C9447000C9447000C9447000C94470024
:100040000C9447000C9447000C9447000C94470014
:100050000C94470011241FBECFE5D8E0DEBFCDBF12
:1000600010E0A0E6B0E0E8EBFBE002C005900D92E6
:10007000A836B107D9F720E0A8E6B0E001C01D928C
:10008000AC38B207E1F70E94E3020C94DA050C9455
:1000900000003E9A379A86B1876086B9089597B175
:1000A000907E97B997B1892B87B9369A3699FECF4A
:1000B00084B195B10895EF92FF920F931F93CF9360
:1000C000DF9310928B0010928A00C7E0D0E001E02D
:1000D00010E0E12CF12C8C2F0E944F0040918A00FF
:1000E00050918B00202F312F8538934014F02E2D06
:1000F0003F2D0C2E02C0220F331F0A94E2F7242B4F
:10010000352B30938B0020938A00219720F7DF91C5
:10011000CF911F910F91FF90EF90089580918A00E9
:1001200090918B00892B09F47CC180918A00909179
:100130008B008F3F910529F410928900109288005E
:10014000089580918A0090918B00499761F0809189
:100150008A0090918B00099731F080918A009091EC
:100160008B00419739F488E790E090938900809361
:100170008800089580918A0090918B000B97C1F0C0
:1001800080918A0090918B00439791F080918A0032
:1001900090918B004B9761F080918A0090918B0039
:1001A0000A9731F080918A0090918B00429739F440
:1001B0008EE690E090938900809388000895809166
:1001C0008A0090918B000F9731F080918A00909176
:1001D0008B004F9739F484E690E0909389008093E8
:1001E0008800089580918A0090918B00019739F4DE
:1001F00086E490E090938900809388000895809130
:100200008A0090918B00039739F48CE390E09093EF
:10021000890080938800089580918A0090918B00D6
:10022000029739F482E390E09093890080938800EC
:10023000089580918A0090918B00069739F488E2A6
:1002400090E09093890080938800089580918A00BF
:1002500090918B00049739F48EE190E0909389009F
:1002600080938800089580918A0090918B000C976C
:1002700039F484E190E09093890080938800089598
:1002800080918A0090918B00089739F48AE090E081
:100290009093890080938800089580918A009091BE
:1002A0008B00489729F410928900109288000895D5
:1002B00080918A0090918B00409739F486EF9FEFF0
:1002C0009093890080938800089580918A0090918E
:1002D0008B00C09739F48CEE9FEF90938900809348
:1002E0008800089580918A0090918B00809739F45E
:1002F00082EE9FEF9093890080938800089580910B
:100300008A0090918B008036910539F488ED9FEF3B
:100310009093890080938800089580918A0090913D
:100320008B008034910539F48EEC9FEF9093890017
:1003300080938800089580918A0090918B00803C82
:10034000910539F484EC9FEF9093890080938800A5
:10035000089580918A0090918B008038910539F43E
:100360008AEB9FEF90938900809388000895809195
:100370008A0090918B00803F910539F080918A002E
:1003800090918B00883F910539F48CE99FEF909311
:10039000890080938800089580918A0090918B0055
:1003A000883D9105E1F080918A0090918B00803D1D
:1003B0009105A9F080918A0090918B00883C91056D
:1003C00071F080918A0090918B008035910539F011
:1003D00080918A0090918B008834910539F482E9EC
:1003E0009FEF9093890080938800089580918A0000
:1003F00090918B008839910571F080918A009091DD
:100400008B008039910539F080918A0090918B00A2
:100410008838910531F488E89FEF909389008093A4
:10042000880008958F929F92AF92BF92CF92DF92F1
:10043000EF92FF920F931F93CF93DF93C0918800A9
:10044000D0918900C195C09377000C2F0C2E000C21
:10045000110B6091740070917500600F711F77230C
:1004600014F46F5F7F4F7B01F594E794F092750071
:10047000E09274006C2F0C2E000C770B880B990BFC
:100480000E94E10420916400309165004091660073
:10049000509167000E946D054B015C01B701FF0C94
:1004A000880B990B0E94E10420916800309169004B
:1004B00040916A0050916B000E946D059B01AC0158
:1004C000C501B4010E943D046B017C01809176005E
:1004D0009801281B310987FD3395B901330F880B2B
:1004E000990B0E94E10420916000309161004091DD
:1004F0006200509163000E946D059B01AC01C70131
:10050000B6010E943D046093700070937100809367
:10051000720090937300C09376000E94A9049B011F
:1005200070936F0060936E00693C71054CF088EC2D
:1005300090E090936F0080936E0028EC30E01AC03A
:1005400028338FEF38074CF488E39FEF90936F00C8
:1005500080936E0028E33FEF02C0332344F498EC0D
:1005600090936D0088EC820F80936C000AC0121685
:1005700013063CF498EC892F821B80936D009093B6
:100580006C00DF91CF911F910F91FF90EF90DF9062
:10059000CF90BF90AF909F908F90089580E090E0B3
:1005A0000E942C0480E090E00E942A04AF9AAE984A
:1005B000AD9AAC9888EC90E00E942C0488EC90E016
:1005C0000E942A0408958C9A8D9AB99A8B988A98D9
:1005D000BA98A79AA69AA59AA49A8F9ABB9A0E94AB
:1005E00049000E942E040E9416040E9420040E94CA
:1005F000CE020E945B000E948E0080918A00909142
:100600008B00892B11F40E945B0080918A009091ED
:100610008B008F3F910511F40E945B000E94120233
:1006200080916D0090E00E942C0480916C0090E01D
:100630000E942A04DECF1F920F920FB60F92112450
:100640008F939F938091840090918500892B51F422
:100650008EB582608EBD81E090E09093850080939E
:10066000840015C08091840090918500019779F4F1
:100670001EBC8CB59DB59695879590938700809309
:1006800086001DBC1CBC10928500109284009F91B6
:100690008F910F900FBE0F901F9018951F920F9281
:1006A0000FB60F9211242F933F934F935F938F9325
:1006B0009F938091800090918100892B51F483B7A2
:1006C000836083BF81E090E09093810080938000FD
:1006D00025C080918000909181000197F9F413BEAC
:1006E00022B740917A0050917B003FEF349FC001C8
:1006F000359F900D1124820F911D880F991F880F2F
:10070000991F909383008093820010927B00109237
:100710007A0012BE10928100109280009F918F91FA
:100720005F914F913F912F910F900FBE0F901F90AF
:1007300018951F920F920FB60F9211242F933F938B
:100740004F935F938F939F9394B780E4892784BFDF
:1007500080917C0090917D00892B51F485B5846057
:1007600085BD81E090E090937D0080937C0025C062
:1007700080917C0090917D000197F9F415BC24B51F
:1007800040917800509179003FEF349FC001359F30
:10079000900D1124820F911D880F991F880F991FAA
:1007A00090937F0080937E001092790010927800E1
:1007B00014BC10927D0010927C009F918F915F91EC
:1007C0004F913F912F910F900FBE0F901F90189552
:1007D0001F920F920FB60F9211248F939F938091C7
:1007E0007800909179000196909379008093780039
:1007F0009F918F910F900FBE0F901F9018951F9291
:100800000F920FB60F9211248F939F9380917A00CD
:1008100090917B00019690937B0080937A009F914A
:100820008F910F900FBE0F901F90189583B788641B
:1008300083BF83B7806283BF83B7816083BF08951E
:1008400085B5886485BD85B5806285BD85B58160C7
:1008500085BD08958CBF089583BD089580B58F7BB5
:1008600080BD599810BC87E689B98AB188618AB978
:1008700080B58E6880BD08955058BB27AA270E9476
:1008800054040C9433050E94250538F00E942C0571
:1008900020F039F49F3F19F426F40C9422050EF44D
:1008A000E095E7FB0C941C05E92F0E94440558F3E2
:1008B000BA17620773078407950720F079F4A6F545
:1008C0000C9466050EF4E0950B2EBA2FA02D0B01AB
:1008D000B90190010C01CA01A0011124FF27591B85
:1008E00099F0593F50F4503E68F11A16F040A22F8B
:1008F000232F342F4427585FF3CF469537952795FC
:10090000A795F0405395C9F77EF41F16BA0B620BFA
:10091000730B840BBAF09150A1F0FF0FBB1F661F41
:10092000771F881FC2F70EC0BA0F621F731F841F84
:1009300048F4879577956795B795F7959E3F08F0AA
:10094000B0CF9395880F08F09927EE0F979587956C
:1009500008950E94B0046894B1110C94670508953D
:100960000E944C0588F09F5798F0B92F9927B751EE
:10097000B0F0E1F0660F771F881F991F1AF0BA9543
:10098000C9F714C0B13091F00E946605B1E0089536
:100990000C946605672F782F8827B85F39F0B93F28
:1009A000CCF3869577956795B395D9F73EF49095F6
:1009B0008095709561957F4F8F4F9F4F0895E89474
:1009C00009C097FB3EF490958095709561957F4F97
:1009D0008F4F9F4F9923A9F0F92F96E9BB27939545
:1009E000F695879577956795B795F111F8CFFAF455
:1009F000BB0F11F460FF1BC06F5F7F4F8F4F9F4F86
:100A000016C0882311F096E911C0772321F09EE8E3
:100A1000872F762F05C0662371F096E8862F70E049
:100A200060E02AF09A95660F771F881FDAF7880F23
:100A30009695879597F9089597F99F6780E870E0F4
:100A400060E008959FEF80EC089500240A94161644
:100A5000170618060906089500240A9412161306AC
:100A6000140605060895092E0394000C11F488233A
:100A700052F0BB0F40F4BF2B11F460FF04C06F5F56
:100A80007F4F8F4F9F4F089557FD9058440F551F2C
:100A900059F05F3F71F04795880F97FB991F61F000
:100AA0009F3F79F087950895121613061406551F77
:100AB000F2CF4695F1DF08C0161617061806991FE3
:100AC000F1CF86957105610508940895E894BB27D8
:100AD00066277727CB0197F908950E9480050C942B
:100AE00033050E94250538F00E942C0520F095233F
:100AF00011F00C941C050C94220511240C9467052C
:100B00000E94440570F3959FC1F3950F50E0551F67
:100B1000629FF001729FBB27F00DB11D639FAA2752
:100B2000F00DB11DAA1F649F6627B00DA11D661FA1
:100B3000829F2227B00DA11D621F739FB00DA11DC2
:100B4000621F839FA00D611D221F749F3327A00D7C
:100B5000611D231F849F600D211D822F762F6A2F18
:100B600011249F5750409AF0F1F088234AF0EE0F7D
:100B7000FF1FBB1F661F771F881F91505040A9F7AA
:100B80009E3F510580F00C941C050C9467055F3F57
:100B9000E4F3983ED4F3869577956795B795F795E6
:100BA000E7959F5FC1F7FE2B880F911D969587955E
:080BB00097F90895F894FFCFB6
:080BB800000020410000B040E4
:00000001FF
