:100000000C942A000C9407040C943A040C94850474
:100010000C9447000C94D4040C9447000C944700B3
:100020000C9447000C9447000C9447000C94EB048C
:100030000C9447000C9447000C9447000C94470024
:100040000C9447000C9447000C9447000C94470014
:100050000C94470011241FBECFE5D8E0DEBFCDBF12
:1000600010E0A0E6B0E0E8E3FBE002C005900D92EE
:10007000A437B107D9F720E0A4E7B0E001C01D9292
:10008000A838B207E1F70E94B7030C949A050C94C4
:1000900000003E9A379A86B1876086B9089597B175
:1000A000907E97B997B1892B87B9369A3699FECF4A
:1000B00084B195B10895BF92CF92DF92EF92FF92F3
:1000C0000F931F93CF93DF931092870010928600B7
:1000D00004E710E0C0E0D0E00F2EF7E0DF2EF02DB7
:1000E000EE24E394F12CB12CC12C8D2D8C1B0E949D
:1000F0004F0040918600509187002E2D3F2DF80132
:10010000729162918F018617970710F42B2D3C2D69
:100110000C2E02C0220F331F0A94E2F7242B352B3A
:1001200030938700209386006AE070E00E943B05D0
:1001300080E690E00E942C052196C830D105A9F6F2
:10014000809186009091870062E070E00E943B05FC
:1001500082E690E00E942C05DF91CF911F910F91D4
:10016000FF90EF90DF90CF90BF9008958091860030
:1001700090918700892B09F4A5C280918600909107
:10018000870080918600909187008F3F910509F448
:1001900099C28091860090918700499701F18091E2
:1001A0008600909187000997D1F080918600909108
:1001B00087004197A1F08091860090918700C197B8
:1001C00071F080918600909187008137910539F018
:1001D00080918600909187008336910539F488E7F5
:1001E00090E090938500809384000895809186002C
:1001F000909187000B9709F44DC0809186009091F3
:100200008700439709F446C080918600909187004B
:100210004B9709F43FC080918600909187000A9720
:10022000C9F18091860090918700429799F1809161
:100230008600909187008737910561F18091860053
:10024000909187008337910529F1809186009091E4
:100250008700C797F9F080918600909187004D97AD
:10026000C9F080918600909187008736910591F0C2
:1002700080918600909187000D9761F080918600B3
:1002800090918700C99731F0809186009091870006
:10029000C39739F488E790E09093850080938400B9
:1002A000089580918600909187000F9731F080919A
:1002B0008600909187004F9739F484E690E0909300
:1002C0008500809384000895809186009091870036
:1002D000019739F080918600909187008E3F9105BB
:1002E00039F486E490E0909385008093840008952B
:1002F0008091860090918700039739F08091860065
:10030000909187008C3F910539F48CE390E09093B5
:1003100085008093840008958091860090918700E5
:10032000029769F08091860090918700079739F0D5
:1003300080918600909187008D3F910539F482E38A
:1003400090E09093850080938400089580918600CA
:1003500090918700069739F08091860090918700F0
:10036000893F910539F488E290E09093850080936D
:10037000840008958091860090918700049769F029
:1003800080918600909187000E9739F080918600C9
:10039000909187008B3F910539F48EE190E0909326
:1003A0008500809384000895809186009091870055
:1003B0000C9739F08091860090918700833F9105DA
:1003C00039F484E190E0909385008093840008954F
:1003D0008091860090918700089769F0809186004F
:1003E000909187004C9739F080918600909187001A
:1003F000873F910539F48AE090E0909385008093DF
:10040000840008958091860090918700489739F084
:100410008091860090918700873E910529F4109283
:100420008500109284000895809186009091870045
:10043000409769F08091860090918700C89739F0C5
:1004400080918600909187008F3E910539F486EF68
:100450009FEF90938500809384000895809186009B
:1004600090918700C09739F0809186009091870025
:100470008F3C910539F48CEE9FEF9093850080932B
:10048000840008958091860090918700809771F094
:1004900080918600909187008037910539F0809196
:1004A0008600909187008F3D910539F482EE9FEF91
:1004B00090938500809384000895809186009091A8
:1004C00087008036910539F08091860090918700F1
:1004D0008F39910539F488ED9FEF909385008093D3
:1004E0008400089580918600909187008034910562
:1004F00071F08091860090918700803E910539F0DF
:1005000080918600909187008F3B910539F48EECA5
:100510009FEF9093850080938400089580918600DA
:1005200090918700803C910531F0809186009091F8
:100530008700CF9739F484EC9FEF909385008093E8
:1005400084000895809186009091870080389105FD
:1005500039F080918600909187008F37910539F4AA
:100560008AEB9FEF9093850080938400089580919B
:10057000860090918700803F910539F08091860038
:1005800090918700883F910539F48CE99FEF909313
:100590008500809384000895809186009091870063
:1005A000883D910509F457C080918600909187009D
:1005B000803D910509F44FC080918600909187009D
:1005C000883C910509F447C080918600909187008E
:1005D0008035910509F43FC0809186009091870095
:1005E00088349105C1F180918600909187008E3EFC
:1005F000910589F180918600909187008E3C91054C
:1006000051F180918600909187008C3E910519F1FF
:100610008091860090918700883B9105E1F0809160
:10062000860090918700863E9105A9F08091860012
:1006300090918700803B910571F0809186009091A8
:1006400087008C39910539F0809186009091870060
:100650008C3C910539F488E89FEF90938500809356
:1006600084000895809186009091870088399105D3
:1006700019F1809186009091870080399105E1F011
:10068000809186009091870088389105A9F080912B
:100690008600909187008C38910571F080918600DA
:1006A000909187008E38910539F080918600909165
:1006B0008700863C910531F488E89FEF9093850090
:1006C00080938400089580E090E00E94180580E007
:1006D00090E00E941605AF9AAE98AD9AAC9884EB64
:1006E00090E00E94180584EB90E00E9416050895A2
:1006F00080E090E00E94180580E090E00E941605DE
:10070000AF98AE9AAD98AC9A84EB90E00E94180531
:1007100084EB90E00E941605089580E090E00E942E
:10072000180580E090E00E941605AF9AAE98AD984B
:10073000AC9A84EB90E00E94180584EB90E00E9454
:100740001605089580E090E00E94180580E090E092
:100750000E941605AF98AE9AAD9AAC9884EB90E0E3
:100760000E94180584EB90E00E94160508958C9A6B
:100770008D9AB99A8B988A98BA98A79AA69AA59AA8
:10078000A49A8F9ABB9A0E9449000E941A050E945F
:1007900002050E940C050E9463032FEF87EA91E691
:1007A000215080409040E1F700C000000E94780393
:1007B0002FEF87EA91E6215080409040E1F700C09A
:1007C00000000E948D032FEF87EA91E621508040C0
:1007D0009040E1F700C000000E94A2032FEF87EADB
:1007E00091E6215080409040E1F700C000000E9457
:1007F00063032FEF87EA91E6215080409040E1F7B4
:1008000000C000000E945B000E94B600FBCF1F9258
:100810000F920FB60F9211248F939F9380918000B7
:1008200090918100892B51F48EB582608EBD81E05C
:1008300090E0909381008093800015C080918000AB
:1008400090918100019779F41EBC8CB59DB5969569
:10085000879590938300809382001DBC1CBC1092EE
:100860008100109280009F918F910F900FBE0F908A
:100870001F9018951F920F920FB60F9211242F936D
:100880003F934F935F938F939F9380917C009091C0
:100890007D00892B51F483B7836083BF81E090E0B2
:1008A00090937D0080937C0025C080917C00909186
:1008B0007D000197F9F413BE22B740917600509164
:1008C00077003FEF349FC001359F900D1124820FB8
:1008D000911D880F991F880F991F90937F00809317
:1008E0007E00109277001092760012BE10927D006A
:1008F00010927C009F918F915F914F913F912F912A
:100900000F900FBE0F901F9018951F920F920FB669
:100910000F9211242F933F934F935F938F939F9345
:1009200094B780E4892784BF809178009091790002
:10093000892B51F485B5846085BD81E090E090936A
:1009400079008093780025C080917800909179009B
:100950000197F9F415BC24B54091740050917500CD
:100960003FEF349FC001359F900D1124820F911DE0
:10097000880F991F880F991F90937B0080937A00AE
:10098000109275001092740014BC109279001092AD
:1009900078009F918F915F914F913F912F910F9090
:1009A0000FBE0F901F9018951F920F920FB60F92C7
:1009B00011248F939F9380917400909175000196FC
:1009C00090937500809374009F918F910F900FBE4C
:1009D0000F901F9018951F920F920FB60F9211242F
:1009E0008F939F93809176009091770001969093DA
:1009F0007700809376009F918F910F900FBE0F909C
:100A00001F90189583B7886483BF83B7806283BFC4
:100A100083B7816083BF089585B5886485BD85B53A
:100A2000806285BD85B5816085BD08958CBF0895C0
:100A300083BD089580B58F7B80BD599810BC87E633
:100A400089B98AB188618AB980B58E6880BD0895F8
:100A50005D9BFECF8CB90895CF93DF93EC01888125
:100A6000882331F021960E94280589918111FBCFBE
:100A7000DF91CF910895CF93DF93CDB7DEB7609725
:100A80000FB6F894DEBF0FBECDBFAB015D9BFECFAE
:100A9000BE016F5F7F4F0E945A05CE0101960E94F2
:100AA0002C0560960FB6F894DEBF0FBECDBFDF9168
:100AB000CF9108954532510520F4423010F00C9446
:100AC0006505FB011082CB010895BB274A3031F444
:100AD000992322F4BDE2909581959F4F0C94710566
:100AE000BB27FB015527AA27880F991FAA1FA41708
:100AF00010F0A41B83955051B9F7A05DAA3308F0FC
:100B0000A95DA193009779F7B111B1931192CB012F
:100B10000C948A05DC01FC01672F71917723E1F7C2
:100B2000329704C07C916D9370836291AE17BF07BA
:080B3000C8F30895F894FFCF0B
:100B380009000A005802580258025802580258027E
:040B48005802C2018C
:00000001FF
