:100000000C942A000C94C2060C94F5060C9440073C
:100010000C9447000C948F070C9447000C944700F5
:100020000C9447000C9447000C9447000C94A607CE
:100030000C9447000C9447000C9447000C94470024
:100040000C9447000C9447000C9447000C94470014
:100050000C94470011241FBECFE5D8E0DEBFCDBF12
:1000600010E0A0E6B0E0E8E5F3E102C005900D92F3
:10007000AC37B107D9F720E0ACE7B0E001C01D9282
:10008000A23AB207E1F70E949B050C94AA090C94CE
:1000900000003E9A379A86B1876086B9089597B175
:1000A000907E97B997B1892B87B9369A3699FECF4A
:1000B00084B195B10895BF92CF92DF92EF92FF92F3
:1000C0000F931F93CF93DF931092A1001092A00083
:1000D00080917C00811131C00CE710E0C0E0D0E0DD
:1000E0000F2EF7E0DF2EF02DEE24E394F12CB12C4F
:1000F000C12C8D2D8C1B0E944F004091A00050916F
:10010000A1002E2D3F2DF801729162918F0186176B
:10011000970710F42B2D3C2D0C2E02C0220F331FFD
:100120000A94E2F7242B352B3093A1002093A000F2
:100130002196C830D105E9F632C0813081F50CE74F
:1001400010E0C0E0D0E00F2EF7E0DF2EF02DEE241F
:10015000E394F12CB12CC12C8D2D8C1B0E944F00EF
:100160004091A0005091A1002E2D3F2DF8017291D9
:1001700062918F016817790710F42B2D3C2D0C2EFE
:1001800002C0220F331F0A94E2F7242B352B309341
:10019000A1002093A0002196C830D105E9F6DF9197
:1001A000CF911F910F91FF90EF90DF90CF90BF9074
:1001B000089580919E0090919F0090939D00809360
:1001C0009C008091A0009091A100892B49F480911E
:1001D0009C0090919D0090939F0080939E000895B5
:1001E0008091A0009091A1008F3F910539F488E79C
:1001F00090E090939F0080939E0008958091A000CE
:100200009091A100499739F18091A0009091A100AF
:10021000099709F18091A0009091A1004197D9F030
:100220008091A0009091A100C197A9F08091A000B9
:100230009091A1008137910571F08091A00090917B
:10024000A1008136910539F08091A0009091A10024
:100250008336910539F488E790E090939F0080936E
:100260009E0008958091A0009091A1000B97F1F15C
:100270008091A0009091A1004397C1F18091A000CE
:100280009091A1004B9791F18091A0009091A100D5
:100290000A9761F18091A0009091A100429731F1FD
:1002A0008091A0009091A10083379105F9F0809191
:1002B000A0009091A1004D97C9F08091A00090916D
:1002C000A1008736910591F08091A0009091A10046
:1002D0000D9761F08091A0009091A100C99731F035
:1002E0008091A0009091A100C39739F488E790E035
:1002F00090939F0080939E0008958091A00090911C
:10030000A1000F9799F08091A0009091A1004F97C4
:1003100069F08091A0009091A100CF9739F0809171
:10032000A0009091A1008F37910539F488E790E003
:1003300090939F0080939E0008958091A0009091DB
:10034000A100019739F486E490E090939F00809398
:100350009E0008958091A0009091A100039739F428
:100360008CE390E090939F0080939E00089580918D
:10037000A0009091A100029769F08091A000909157
:10038000A100079739F08091A0009091A1008D3FC6
:10039000910539F48EE190E090939F0080939E0048
:1003A00008958091A0009091A100069739F0809166
:1003B000A0009091A100893F910539F484E190E07B
:1003C00090939F0080939E0008958091A00090914B
:1003D000A100049731F08091A0009091A1000E97A8
:1003E00039F48FE090E090939F0080939E000895F1
:1003F0008091A0009091A1008B3F910561F48FE066
:1004000090E090939F0080939E0080917E008F5F8C
:1004100080937E0008958091A0009091A1000C9798
:1004200039F48AE090E090939F0080939E000895B5
:100430008091A0009091A100833F910561F48AE032
:1004400090E090939F0080939E0080917E008F5F4C
:1004500080937E0008958091A0009091A10008975C
:1004600031F08091A0009091A1004C9739F485E083
:1004700090E090939F0080939E0008958091A0004B
:100480009091A100873F910561F485E090E0909301
:100490009F0080939E0080917E008F5F80937E00FE
:1004A00008958091A0009091A100489729F410929E
:1004B0009F0010929E0008958091A0009091A1004D
:1004C000873E910551F410929F0010929E008091FA
:1004D0007E008F5F80937E0008958091A0009091B0
:1004E000A1008E3E9105E9F18091A0009091A100BC
:1004F00087379105B1F18091A0009091A1008636D7
:10050000910579F18091A0009091A1008939910520
:1005100041F18091A0009091A1008E37910509F1E1
:100520008091A0009091A100CC97D9F08091A0007B
:100530009091A1008C379105A1F08091A00090913D
:10054000A100CE9771F08091A0009091A100873713
:10055000910539F08091A0009091A1008E3E910507
:1005600029F410929F0010929E0008958091A0009F
:100570009091A100409731F08091A0009091A1004E
:10058000C89739F48BEF9FEF90939F0080939E0064
:1005900008958091A0009091A1008F3E910561F493
:1005A0008BEF9FEF90939F0080939E0080917E0041
:1005B0008F5F80937E0008958091A0009091A100AC
:1005C000C09739F486EF9FEF90939F0080939E0031
:1005D00008958091A0009091A1008F3C910561F455
:1005E00086EF9FEF90939F0080939E0080917E0006
:1005F0008F5F80937E0008958091A0009091A1006C
:10060000809739F08091A0009091A10080379105EA
:1006100039F481EF9FEF90939F0080939E0008959F
:100620008091A0009091A1008F3D910561F481EF30
:100630009FEF90939F0080939E0080917E008F5F3C
:1006400080937E0008958091A0009091A100803653
:10065000910539F08091A0009091A1008F3991050A
:1006600039F48CEE9FEF90939F0080939E00089545
:100670008091A0009091A1008034910571F080914B
:10068000A0009091A100803E910539F08091A000DA
:100690009091A1008F3B910539F482EE9FEF9093EA
:1006A0009F0080939E0008958091A0009091A100EA
:1006B000803C910539F484EC9FEF90939F008093E8
:1006C0009E0008958091A0009091A100803891052E
:1006D00039F48AEB9FEF90939F0080939E000895DA
:1006E0008091A0009091A100803F9105A9F0809198
:1006F000A0009091A100883F910571F08091A00029
:100700009091A1008C3F910539F08091A0009091CB
:10071000A1008E3F910539F488E89FEF90939F00E8
:1007200080939E0008958091A0009091A100883D43
:10073000910509F447C08091A0009091A100803DEF
:10074000910509F43FC08091A0009091A100883CE0
:100750009105C1F18091A0009091A1008035910593
:1007600089F18091A0009091A1008834910551F108
:100770008091A0009091A1008E3C910519F180918B
:10078000A0009091A100883B9105E1F08091A0002C
:100790009091A100863E9105A9F08091A0009091D2
:1007A000A100803B910571F08091A0009091A10083
:1007B0008C39910539F08091A0009091A1008C3C7A
:1007C000910539F488E89FEF90939F0080939E00F5
:1007D00008958091A0009091A1008839910551F170
:1007E0008091A0009091A1008039910519F180912C
:1007F000A0009091A10088389105E1F08091A000BF
:100800009091A1008C389105A9F08091A000909161
:10081000A1008E38910571F08091A0009091A10007
:100820008638910539F08091A0009091A100863C16
:10083000910531F488E89FEF90939F0080939E008C
:10084000089580E090E00E94D10780E090E00E944F
:10085000D307AF9AAE98AD9AAC98089580E090E037
:100860000E94D10780E090E00E94D307AF98AE9A33
:10087000AD9AAC98089580E090E00E94D10780E0A6
:1008800090E00E94D307AF9AAE98AD98AC9A0895C5
:100890008F929F92AF92BF92CF92DF92EF92FF9290
:1008A0000F931F93CF93DF93C0919E00D0919F0031
:1008B000C195C0938B000C2F0C2E000C110B609176
:1008C000880070918900600F711F772314F46F5FA7
:1008D0007F4F7B01F594E794F0928900E0928800C5
:1008E0006C2F0C2E000C770B880B990B0E948D0837
:1008F000209168003091690040916A0050916B002E
:100900000E943D094B015C01B701FF0C880B990B5C
:100910000E948D082091600030916100409162003A
:10092000509163000E943D099B01AC01C501B401D7
:100930000E94E4076B017C0180918A009801281BCA
:10094000310987FD3395B901330F880B990B0E944C
:100950008D082091640030916500409166005091AF
:1009600067000E943D099B01AC01C701B6010E94CE
:10097000E4076093840070938500809386009093D1
:100980008700C0938A000E9455087093830060938B
:100990008200653B7105CCF0645B653B18F46093A5
:1009A0007F0003C084EB80937F0084EB90E0909302
:1009B0008300809382000E942E0480917F008093A8
:1009C000810084EB8093800040C06C344FEF74074B
:1009D000DCF42CE4822F861B853B18F480937F0087
:1009E00003C084EB80937F008CE49FEF909383009F
:1009F000809382000E943B0484EB8093810080916D
:100A00007F008093800021C09B012D543F4F233BEA
:100A1000310558F40E94210484EB80938100809179
:100A200082008C548093800010C061507109633B38
:100A3000710558F40E94210484EB90918200282FC4
:100A4000291B2093810080938000DF91CF911F911B
:100A50000F91FF90EF90DF90CF90BF90AF909F905D
:100A60008F90089580E090E00E94D10780E090E0B0
:100A70000E94D307AF9AAE98AD9AAC9884EB90E001
:100A80000E94D10784EB90E00E94D307089580E094
:100A900090E00E94D10780E090E00E94D307AF98D9
:100AA000AE9AAD98AC9A84EB90E00E94D10784EBAB
:100AB00090E00E94D30708950E9447058FE891E0D7
:100AC0000197F1F700C0000080E090E00E94D1079C
:100AD00080E090E00E94D307AF98AE98AD98AC98B4
:100AE000089580E090E00E94D10780E090E00E94AD
:100AF000D307AF9AAE98AD98AC9A80EA90E00E9486
:100B0000D10780EA90E00E94D307089580E090E04A
:100B10000E94D10780E090E00E94D307AF98AE9A80
:100B2000AD9AAC9880EA90E00E94D10780EA90E00C
:100B30000E94D30708958C9A8D9AB99A8B988A98B7
:100B4000BA98A79AA69AA59AA49A8F9ABB9A0E9435
:100B500049000E94D5070E94BD070E94C7070E9456
:100B600021040E94320584EB90E00E94D10784EBBF
:100B700090E00E94D3070E9432052FEF85EA9EE0A5
:100B8000215080409040E1F700C0000004E010E0F8
:100B90000F2EFEE1DF2EF02DE12CFF24F3940E94B6
:100BA0005B000E94D90080919E0090919F00843646
:100BB000910551F080919E0090919F008C399F4F3C
:100BC000C9F4C02FD12F02C0C02FD12F0E945B00CB
:100BD0000E94D90080919E0090919F0084369105DB
:100BE00039F080919E0090919F008C399F4F11F4B5
:100BF000219761F760919E0070919F00072E000C75
:100C0000880B990B0E948D0820E030E040E05FE304
:100C10000E94500881110BC00E9432058FEF93E2B1
:100C200024EF815090402040E1F700C00000809107
:100C3000A0009091A100C79741F08091A0009091F1
:100C4000A1008C3E910509F094C00E9432050E94DB
:100C50005B000E94D9008DC0CD2DDE2D0E945B006F
:100C60000E94D9002197D1F726C00E945C052FEF82
:100C700083EC99E0215080409040E1F700C00000F3
:100C80000E9471052FEF87E893E12150804090404A
:100C9000E1F700C0000080919E0090919F00409776
:100CA00054F00E945B000E94D90080919E009091B8
:100CB0009F004097B4F780919E0090919F008837E5
:100CC000910599F280919E0090919F0088389F4FE6
:100CD00081F528C00E945C058FEF93EC29E08150DC
:100CE00090402040E1F700C000000E9486058FEF91
:100CF00097E823E1815090402040E1F700C00000D8
:100D000080919E0090919F00813F9F4F5CF40E94D4
:100D10005B000E94D90080919E0090919F00813FCE
:100D20009F4FACF380919E0090919F0088389F4F19
:100D300089F20E9448048091810090E00E94D107CE
:100D40008091800090E00E94D30780917E00909176
:100D50007D00891303C010927E0006C0853620F006
:100D6000F0927C0010927E0080917E0080937D0046
:100D700016CF80919E0090919F008837910509F0D1
:100D8000A1CF6ACF1F920F920FB60F9211248F93AB
:100D90009F938091980090919900892B51F48EB582
:100DA00082608EBD81E090E09093990080939800DE
:100DB00015C08091980090919900019779F41EBC1C
:100DC0008CB59DB59695879590939B0080939A00DE
:100DD0001DBC1CBC10929900109298009F918F919D
:100DE0000F900FBE0F901F9018951F920F920FB685
:100DF0000F9211242F933F934F935F938F939F9361
:100E00008091940090919500892B51F483B7836071
:100E100083BF81E090E0909395008093940025C07B
:100E200080919400909195000197F9F413BE22B738
:100E300040918E0050918F003FEF349FC001359F4D
:100E4000900D1124820F911D880F991F880F991FF3
:100E5000909397008093960010928F0010928E00CE
:100E600012BE10929500109294009F918F915F9105
:100E70004F913F912F910F900FBE0F901F9018959B
:100E80001F920F920FB60F9211242F933F934F93FF
:100E90005F938F939F9394B780E4892784BF809159
:100EA000900090919100892B51F485B5846085BDA7
:100EB00081E090E0909391008093900025C0809114
:100EC0009000909191000197F9F415BC24B54091E0
:100ED0008C0050918D003FEF349FC001359F900DE5
:100EE0001124820F911D880F991F880F991F9093CD
:100EF00093008093920010928D0010928C0014BC8D
:100F000010929100109290009F918F915F914F915C
:100F10003F912F910F900FBE0F901F9018951F9229
:100F20000F920FB60F9211248F939F9380918C0094
:100F300090918D00019690938D0080938C009F91ED
:100F40008F910F900FBE0F901F9018951F920F92C8
:100F50000FB60F9211248F939F9380918E009091E2
:100F60008F00019690938F0080938E009F918F91B8
:100F70000F900FBE0F901F90189583B7886483BFA2
:100F800083B7806283BF83B7816083BF089585B5CF
:100F9000886485BD85B5806285BD85B5816085BD68
:100FA00008958CBF089583BD089580B58F7B80BD63
:100FB000599810BC87E689B98AB188618AB980B529
:100FC0008E6880BD08955058BB27AA270E94FB0752
:100FD0000C9403090E94F50838F00E94FC0820F0E8
:100FE00039F49F3F19F426F40C94F2080EF4E095BE
:100FF000E7FB0C94EC08E92F0E94140958F3BA1788
:10100000620773078407950720F079F4A6F50C941E
:1010100036090EF4E0950B2EBA2FA02D0B01B90165
:1010200090010C01CA01A0011124FF27591B99F05E
:10103000593F50F4503E68F11A16F040A22F232F6A
:10104000342F4427585FF3CF469537952795A795BA
:10105000F0405395C9F77EF41F16BA0B620B730B61
:10106000840BBAF09150A1F0FF0FBB1F661F771FD2
:10107000881FC2F70EC0BA0F621F731F841F48F487
:10108000879577956795B795F7959E3F08F0B0CF10
:101090009395880F08F09927EE0F979587950895F7
:1010A0000E94C80808F481E008950E945C086894D2
:1010B000B1110C94370908950E941C0988F09F57BC
:1010C00098F0B92F9927B751B0F0E1F0660F771F6C
:1010D000881F991F1AF0BA95C9F714C0B13091F062
:1010E0000E943609B1E008950C943609672F782FD5
:1010F0008827B85F39F0B93FCCF386957795679527
:10110000B395D9F73EF490958095709561957F4F92
:101110008F4F9F4F0895E89409C097FB3EF4909538
:101120008095709561957F4F8F4F9F4F9923A9F0C0
:10113000F92F96E9BB279395F6958795779567954F
:10114000B795F111F8CFFAF4BB0F11F460FF1BC093
:101150006F5F7F4F8F4F9F4F16C0882311F096E926
:1011600011C0772321F09EE8872F762F05C06623D4
:1011700071F096E8862F70E060E02AF09A95660F8D
:10118000771F881FDAF7880F9695879597F9089546
:10119000990F0008550FAA0BE0E8FEEF1616170688
:1011A000E807F907C0F012161306E407F50798F0F0
:1011B000621B730B840B950B39F40A2661F0232B09
:1011C000242B252B21F408950A2609F4A140A69585
:1011D0008FEF811D811D089597F99F6780E870E06A
:1011E00060E008959FEF80EC089500240A9416169D
:1011F000170618060906089500240A941216130605
:10120000140605060895092E0394000C11F4882392
:1012100052F0BB0F40F4BF2B11F460FF04C06F5FAE
:101220007F4F8F4F9F4F089557FD9058440F551F84
:1012300059F05F3F71F04795880F97FB991F61F058
:101240009F3F79F087950895121613061406551FCF
:10125000F2CF4695F1DF08C0161617061806991F3B
:10126000F1CF86957105610508940895E894BB2730
:1012700066277727CB0197F908950E9450090C94AF
:1012800003090E94F50838F00E94FC0820F095231D
:1012900011F00C94EC080C94F20811240C9437090A
:1012A0000E94140970F3959FC1F3950F50E0551FEC
:1012B000629FF001729FBB27F00DB11D639FAA27AB
:1012C000F00DB11DAA1F649F6627B00DA11D661FFA
:1012D000829F2227B00DA11D621F739FB00DA11D1B
:1012E000621F839FA00D611D221F749F3327A00DD5
:1012F000611D231F849F600D211D822F762F6A2F71
:1013000011249F5750409AF0F1F088234AF0EE0FD5
:10131000FF1FBB1F661F771F881F91505040A9F702
:101320009E3F510580F00C94EC080C9437095F3F08
:10133000E4F3983ED4F3869577956795B795F7953E
:10134000E7959F5FC1F7FE2B880F911D96958795B6
:0813500097F90895F894FFCF0E
:10135800CDCCCC3D0000704166662640580258024C
:0C13680058025802580258025802C201F4
:00000001FF
