:100000000C942A000C9447000C9447000C94470071
:100010000C9447000C9447000C9447000C94E001AA
:100020000C9447000C9447000C9447000C94470034
:100030000C9447000C9447000C9447000C94470024
:100040000C9447000C9447000C9447000C94470014
:100050000C94470011241FBECFE5D8E0DEBFCDBF12
:1000600010E0A0E6B0E0E2EFF4E102C005900D92EE
:10007000AC3CB107D9F721E0ACECB0E001C01D9277
:10008000A032B207E1F70E9408050C94770A0C949D
:1000900000003E9A379A86B1876086B9089597B175
:1000A000907E97B997B1892B87B9369A3699FECF4A
:1000B00084B195B108951092D3009498949A35E341
:1000C0003A95F1F70000949821E031C08EB5826036
:1000D0008EBD839B21C01DBC1CBC8EB582608EBDB5
:1000E0000BC08CB59DB58938934130F01EBC1DBC4A
:1000F0001CBC8FE690E008958399F3CF1EBC8CB5AD
:100100009DB5969587959093D1008093D0001DBCA6
:100110001CBC2093D3000BC08CB59DB58131974298
:1001200030F01EBC1DBC1CBC80E790E0089580919F
:10013000D300882359F26091D0007091D10080E003
:1001400090E00E94E40829E23CE54FE05DE30E9474
:100150009B0920E030E040E05FE30E949B090E94A1
:10016000B508CB0108951092D2009598959A35E381
:100170003A95F1F70000959821E02EC08EB5826087
:100180008EBD829B1EC01DBC1CBC0BC08CB59DB51A
:100190008938934130F01EBC1DBC1CBC8FE690E03A
:1001A00008958299F3CF1EBC8CB59DB59695879521
:1001B0009093CF008093CE001DBC1CBC2093D20036
:1001C0000BC08CB59DB58131974230F01EBC1DBC73
:1001D0001CBC80E790E008958091D200882371F2E2
:1001E0006091CE007091CF0080E090E00E94E40822
:1001F00029E23CE54FE05DE30E949B0920E030E00E
:1002000040E05FE30E949B090E94B508CB0108957E
:100210009F92AF92BF92CF92DF92EF92FF920F9395
:100220001F93CF93DF931092DB001092D7001092B0
:10023000D8001092D6001092D5001092D4000F2E44
:10024000F4E9CF2EF0E0DF2EF02D0FEF1FEF0F2E91
:10025000FEEFFF2EF02DD1E0C0E00F2EF5E0BF2E17
:10026000F02DA12CE12C9924939406C0CF5FDF5F81
:10027000F394F3940F5F1F4F8C2F0E944F00F601F1
:10028000219131916F0182179307F0F4C11103C0DE
:100290009092D700EBCFC73021F481E08093D80053
:1002A00015C08B2D90E00817190714F4B02E06C066
:1002B0008A2D90E0801791070CF4A02EEF0C80910E
:1002C000DB008F5F8093DB00D83080F22091DB0071
:1002D000422F50E08A2D90E08B1991090196481722
:1002E000590711F5F5E0AF1206C081E08B1580F4D7
:1002F0008093D50011C0B1100BC0E3E0EA1540F0C7
:1003000081E08093D4008091D500813069F408C0E9
:100310008091D500813041F48091D400813021F466
:100320001092D5001092D4008091D700813051F402
:100330008091D800813031F41092D7001092D8000B
:100340008093D6008E2D622F0E94080A8093DC00D5
:10035000263071F48091D600813051F48091D9001B
:100360009091DA0001969093DA008093D90004C04E
:100370001092DA001092D900DF91CF911F910F9166
:10038000FF90EF90DF90CF90BF90AF909F90089537
:100390009093F2008093F10089B7806189BF7894CF
:1003A0001DBC1CBC89EF90E09BBD8ABD8EB58B60E7
:1003B0008EBD08951EBC19BEF8941DBC1CBC0895CA
:1003C0001F920F920FB60F9211242F933F938F938A
:1003D0009F938091F3009091F40001969093F40024
:1003E0008093F3001DBC1CBC2091F3003091F400FD
:1003F0008091F1009091F2002817390750F08EB5E6
:100400008EBD81E08093F0001092F4001092F30012
:10041000F8949F918F913F912F910F900FBE0F9065
:100420001F90189580E090E00E94F80780E090E02F
:100430000E94FA07AF9AAE98AD9AAC98089580E002
:1004400090E00E94F80780E090E00E94FA07AF98E1
:10045000AE9AAD9AAC98089580E090E00E94F807BB
:1004600080E090E00E94FA07AF9AAE98AD98AC9AFF
:1004700008958F929F92AF92BF92CF92DF92EF92A8
:10048000FF92CF93DF936091DC0070E065507109BB
:10049000072E000C880B990B0E94E6086B017C016B
:1004A0006093EC007093ED008093EE009093EF006A
:1004B0002091E8003091E9004091EA005091EB0072
:1004C0000E943C084B015C016091600070916100EA
:1004D00080E090E00E94E4089B01AC01C501B401FA
:1004E0000E949B094B015C01609162007091630066
:1004F00080E090E00E94E408A70196010E949B0919
:100500009B01AC01C501B4010E943D086093E40069
:100510007093E5008093E6009093E700C092E800B6
:10052000D092E900E092EA00F092EB000E94AE085F
:100530007093E3006093E2006F3F7105C1F0BCF07F
:100540006F5F6093DD00CFEFD0E0D093E300C09306
:10055000E2000E942C028091DD0090E09093DF0089
:100560008093DE00D093E100C093E0004DC0613085
:100570004FEF7407DCF421E0822F861B8093DD00AF
:1005800081E09FEF9093E3008093E2000E941F02BE
:100590008FEF90E09093DF008093DE008091DD008C
:1005A00090E09093E1008093E0002EC06F3F7105D2
:1005B000A0F40E9412028FEF90E02091E2003091AF
:1005C000E300AC01421B530B5093DF004093DE006D
:1005D0009093E1008093E00017C062507F4F6E3F20
:1005E000710590F40E9412028FEF90E09093DF006B
:1005F0008093DE008091E2009091E30081509F4F54
:100600009093E1008093E000DF91CF91FF90EF9015
:10061000DF90CF90BF90AF909F908F90089580E033
:1006200090E00E94F80780E090E00E94FA07AF9AFD
:10063000AE98AD9AAC988FEF90E00E94F8078FEFDC
:1006400090E00E94FA07089580E090E00E94F80789
:1006500080E090E00E94FA07AF98AE9AAD98AC9A0D
:1006600082E890E00E94F80782E890E00E94FA0792
:1006700008950E9424038FE891E00197F1F700C0EC
:10068000000080E090E00E94F80780E090E00E9487
:10069000FA07AF98AE98AD98AC980895CF93DF93D2
:1006A000C82F80E090E00E94F80780E090E00E9470
:1006B000FA07AF9AAE98AD98AC9AD0E0CE010E94FE
:1006C000F807CE010E94FA07DF91CF9108955F925B
:1006D0006F927F928F929F92AF92BF92CF92DF9252
:1006E000EF92FF920F931F93CF93DF9380ED97E0EC
:1006F0000E94C8018AEA0E944E031DC08C2F0E94EE
:100700004F00282F392FF70140815181421753079D
:1007100010F480839183F8014081518124173507BB
:1007200010F480839183CF5FF2E0EF0EF11C0E5F37
:100730001F4FC83019F78091F00081110AC00F2EA9
:10074000F6EFEF2EF0E0FF2EF02D04E610E0C0E013
:10075000D5CF1092F0000E94DA010E94390387EA97
:1007600090E00E940E0806EF10E0C6E0D1E07801AC
:100770006AE070E0F701819191917F010E941D086C
:1007800089E00E940A08EC16FD0691F78AE00E94B3
:100790000A088CEA90E00E940E080F2EF4E66F2EF5
:1007A000F0E07F2EF02D0F2EF4E7CF2EF0E0DF2EBD
:1007B000F02D73016AE070E0F701819191917F0162
:1007C0000E941D0889E00E940A08EC14FD0491F7BC
:1007D0008AE00E940A0881EB90E00E940E080F2E2A
:1007E000F4E9EF2EF0E0FF2EF02D57010F2EF4E686
:1007F000CF2EF0E0DF2EF02D0F2EF6EF8F2EF0E053
:100800009F2EF02DF401219131914F01F60181913C
:1008100091916F01820F931F96958795F5018193B2
:1008200091935F016AE070E00E941D0889E00E94D8
:100830000A088C169D0631F78AE00E940A0886EBAA
:1008400090E00E940E080F2EF4E88F2EF0E09F2E0D
:10085000F02D0F2EF4E9AF2EF0E0BF2EF02D0F2E6D
:10086000F6EFCF2EF0E0DF2EF02D0F2EFEE15F2E03
:10087000F02DF601819191916F01F5014191519116
:100880005F01841B950B589E9001599E300D1124D9
:100890003695279536952795ABE7B4E10E94280A4F
:1008A00096958795840F951FF401819391934F013D
:1008B0006AE070E00E941D0889E00E940A08CC16D8
:1008C000DD06B9F68AE00E940A088BEB90E00E94F0
:1008D0000E080F2EF4E7AF2EF0E0BF2EF02D0F2EF6
:1008E000F4EA8F2EF0E09F2EF02D0F2EF4E6CF2E9F
:1008F000F0E0DF2EF02D0F2EFEE15F2EF02DF70140
:10090000419151917F01F601819191916F019A017D
:10091000281B390BC901589E9001599E300D112496
:100920003695279536952795ABE7B4E10E94280ABE
:1009300096958795FA01E81BF90BCF01F501819394
:1009400091935F016AE070E00E941D0889E00E94B7
:100950000A088E149F0499F68AE00E940A0880EC27
:1009600090E00E940E080F2EF6E0EF2EF1E0FF2E31
:10097000F02D0F2EF0E2CF2EFEE4DF2EF02DF80149
:10098000619171918F01F301819191913F01681BF8
:10099000790BC6010E94140ACB01F7016193719390
:1009A0007F016AE070E00E941D0889E00E940A0849
:1009B0000C171D0721F785EC90E00E940E08DF91CF
:1009C000CF911F910F91FF90EF90DF90CF90BF904C
:1009D000AF909F908F907F906F905F900895CF938E
:1009E000DF93C82F80E090E00E94F80780E090E05D
:1009F0000E94FA07AF98AE9AAD9AAC98D0E0CE01BB
:100A00000E94F807CE010E94FA07DF91CF91089566
:100A10008C9A8D9AB99A8B988A98BA98A79AA69A1E
:100A2000A59AA49A8F9ABB9A0E9449000E94FC073B
:100A30000E94E4070E94EE070E9412022FEF33ED9E
:100A400040E3215030404040E1F700C000000E94E8
:100A500067038FEF93ED20E3815090402040E1F752
:100A600000C000000E940F03C6E1D1E002E31EECCB
:100A70000F2EF8E2FF2EF02D0E940801C090F50025
:100A8000D12C0E94B300F601EA5EFE4F8083809174
:100A9000F500843040F11092F500E6E1F1E040E02D
:100AA00050E06181342FCA012191621770F4DC019A
:100AB000AA5EBE4F11962C933150832F90E0DC013B
:100AC000AA5EBE4F2C91621790F3DC01AA5EBE4F66
:100AD00011966C934F5F5F4F4430510511F78C8135
:100AE0008093CC0003C08F5F8093F5008091CC0091
:100AF0008C3008F068C08090EC009090ED00A090E1
:100B0000EE00B090EF0020E030E040E050E4C5019E
:100B1000B4010E94A90888230CF055C020E030E001
:100B200040E050ECC501B4010E94960918160CF083
:100B30004AC00E9424033FEF41EE84E03150404020
:100B40008040E1F700C000000E94390338C0C09027
:100B5000F500D12C0E94B300F601EA5EFE4F8083BF
:100B60008091F500843040F11092F500E6E1F1E06B
:100B700040E050E06181342FCA012191621770F486
:100B8000DC01AA5EBE4F11962C933150832F90E06A
:100B9000DC01AA5EBE4F2C91621790F3DC01AA5EC5
:100BA000BE4F11966C934F5F5F4F4430510511F764
:100BB0008A818093CC0003C08F5F8093F500809181
:100BC000CC008C3020F28091DB008111A4C00E9407
:100BD0005B000A9708F09FC00E945B008093CD00E5
:100BE0000E94120288E790E00E94F80788E790E0F0
:100BF0000E94FA078091DB0081118DC0B29B1CC05E
:100C00000E9424039FEF20E732E0915020403040C3
:100C1000E1F700C000000E9439030E941202B2995D
:100C2000FECF4FEF8FE493EC415080409040E1F7CE
:100C300000C000000E940F030E945B009091CD0055
:100C4000891BC82E880FDD080C9DC0010D9D900DDD
:100C5000112480569F4F0E94F80796011203C0018D
:100C6000139F900D112480569F4F0E94FA073FEF6B
:100C700049EF80E0315040408040E1F700C0000083
:100C80000E94B300079708F03FC00E9424039FEF23
:100C900023EC39E0915020403040E1F700C00000E3
:100CA0000E94390382E80E94EF044FEF89E698E141
:100CB000415080409040E1F700C000000E945B007E
:100CC0002091CD0030E028173907C0F30E941202AE
:100CD0000E945B009091CD00891BC82E880FDD0813
:100CE000FC9CC001FD9C900D112488589F4F0E94D0
:100CF000F80748ED96014203C001439F900D11246F
:100D000088589F4F0E94FA070E9408018091DB00DB
:100D1000882309F473CF8091D700813009F04EC148
:100D20008091DC008450833008F048C10E940F039A
:100D30000CC00E9408018091D600813009F424C1C2
:100D40008091D800813009F41FC18091D700813093
:100D500081F38091D600811117C18091D800811153
:100D600013C18FEF92E527E0815090402040E1F7DA
:100D700000C000000E9408018091DB00811104C1C5
:100D80008091D800811100C10E9424033FEF44E309
:100D90008CE0315040408040E1F700C0000086E91F
:100DA0000E944E039FEF25EA3EE0915020403040E4
:100DB000E1F700C000000E9408018091DB00811172
:100DC000E3C08091D8008111DFC08CE80E94EF045D
:100DD0004FEF86E191E1415080409040E1F700C043
:100DE000000006C00E9408018091D800813041F0C7
:100DF0008091DB008823B1F38091DC00833090F395
:100E00000E940801C1C00E940F030CC00E9408018B
:100E10008091D600813009F4B7C08091D70081302D
:100E200009F4B2C08091D800813081F38091D6005E
:100E30008111AAC08091D7008111A6C02FEF37EE93
:100E400043E0215030404040E1F700C000008CE812
:100E50000E944E038091D800811109C00E940801B0
:100E60008091D8008823D1F302C00E9408018091AC
:100E7000DB008823D1F38091DC0084508430A8F714
:100E800083C08091D600813009F07EC08091DC0063
:100E90008450833008F078C00E940F038091D60000
:100EA0008130A9F48091D9009091DA0084369105BF
:100EB000ACF40E9408018091D600813041F4809109
:100EC000D9009091DA00843691059CF307C0809197
:100ED000D9009091DA00843691054CF10E942403E8
:100EE0008FEF91EE24E0815090402040E1F700C068
:100EF00000000E9439033FEF47EA81E6315040404D
:100F00008040E1F700C000008091DB008630E1F511
:100F10008091D6008130C1F50E9408018091DB00EC
:100F2000863091F58091D6008130B1F32DC09FEFCE
:100F300027EE33E0915020403040E1F700C0000040
:100F40000E9408018CE80E944E034FEF81EE94E06E
:100F5000415080409040E1F700C000008091D800EF
:100F6000811109C00E9408018091D8008823D1F323
:100F700002C00E9408018091DB008823D1F3809198
:100F8000DC0084508430A8F78091DC008F3F09F4A6
:100F900073CD0E9439028091E0009091E1000E949F
:100FA000F8078091DE009091DF000E94FA0764CD7F
:100FB0008091DC008450833038F725CF8091D800B1
:100FC000813009F05ECFF4CF83B7886483BF83B7E5
:100FD000806283BF83B7816083BF089585B58864CD
:100FE00085BD85B5806285BD85B5816085BD089567
:100FF0008CBF089583BD089580B58F7B80BD5998BF
:1010000010BC87E689B98AB188618AB980B58E68D3
:1010100080BD08955D9BFECF8CB90895CF93DF937B
:10102000EC018881882331F021960E940A08899179
:101030008111FBCFDF91CF910895CF93DF93CDB78F
:10104000DEB764970FB6F894DEBF0FBECDBFAB011D
:101050005D9BFECFBE016F5F7F4F0E94370ACE01BE
:1010600001960E940E0864960FB6F894DEBF0FBE7C
:10107000CDBFDF91CF9108955058BB27AA270E947A
:1010800054080C945C090E944E0938F00E945509DE
:1010900020F039F49F3F19F426F40C944B090EF418
:1010A000E095E7FB0C944509E92F0E946D0958F380
:1010B000BA17620773078407950720F079F4A6F53D
:1010C0000C948F090EF4E0950B2EBA2FA02D0B0176
:1010D000B90190010C01CA01A0011124FF27591B7D
:1010E00099F0593F50F4503E68F11A16F040A22F83
:1010F000232F342F4427585FF3CF469537952795F4
:10110000A795F0405395C9F77EF41F16BA0B620BF2
:10111000730B840BBAF09150A1F0FF0FBB1F661F39
:10112000771F881FC2F70EC0BA0F621F731F841F7C
:1011300048F4879577956795B795F7959E3F08F0A2
:10114000B0CF9395880F08F09927EE0F9795879564
:1011500008950E94210908F481E008950E94B508CD
:101160006894B1110C94900908950E94750988F053
:101170009F5798F0B92F9927B751B0F0E1F0660F5B
:10118000771F881F991F1AF0BA95C9F714C0B1309C
:1011900091F00E948F09B1E008950C948F09672F98
:1011A000782F8827B85F39F0B93FCCF386957795CB
:1011B0006795B395D9F73EF49095809570956195B4
:1011C0007F4F8F4F9F4F0895E89409C097FB3EF4DF
:1011D00090958095709561957F4F8F4F9F4F992384
:1011E000A9F0F92F96E9BB279395F6958795779502
:1011F0006795B795F111F8CFFAF4BB0F11F460FFC2
:101200001BC06F5F7F4F8F4F9F4F16C0882311F019
:1012100096E911C0772321F09EE8872F762F05C02D
:10122000662371F096E8862F70E060E02AF09A95C8
:10123000660F771F881FDAF7880F9695879597F9BD
:101240000895990F0008550FAA0BE0E8FEEF161657
:101250001706E807F907C0F012161306E407F507AA
:1012600098F0621B730B840B950B39F40A2661F01E
:10127000232B242B252B21F408950A2609F4A140C1
:10128000A6958FEF811D811D089597F99F6780E8CE
:1012900070E060E008959FEF80EC089500240A94C8
:1012A0001616170618060906089500240A94121641
:1012B0001306140605060895092E0394000C11F474
:1012C000882352F0BB0F40F4BF2B11F460FF04C021
:1012D0006F5F7F4F8F4F9F4F089557FD9058440F7A
:1012E000551F59F05F3F71F04795880F97FB991F85
:1012F00061F09F3F79F08795089512161306140642
:10130000551FF2CF4695F1DF08C0161617061806CE
:10131000991FF1CF86957105610508940895E894A9
:10132000BB2766277727CB0197F908950E942109EB
:1013300008F48FEF08950E94AE090C945C090E9496
:101340004E0938F00E94550920F0952311F00C94B5
:1013500045090C944B0911240C9490090E946D09C5
:1013600070F3959FC1F3950F50E0551F629FF001F8
:10137000729FBB27F00DB11D639FAA27F00DB11D11
:10138000AA1F649F6627B00DA11D661F829F22279A
:10139000B00DA11D621F739FB00DA11D621F839F21
:1013A000A00D611D221F749F3327A00D611D231FF7
:1013B000849F600D211D822F762F6A2F11249F5745
:1013C00050409AF0F1F088234AF0EE0FFF1FBB1F48
:1013D000661F771F881F91505040A9F79E3F510507
:1013E00080F00C9445090C9490095F3FE4F3983E1B
:1013F000D4F3869577956795B795F795E7959F5FB1
:10140000C1F7FE2B880F911D9695879597F9089542
:10141000991B79E004C0991F961708F0961B881F46
:101420007A95C9F780950895AA1BBB1B51E107C0A7
:10143000AA1FBB1FA617B70710F0A61BB70B881F64
:10144000991F5A95A9F780959095BC01CD010895F3
:10145000A29FB001B39FC001A39F700D811D1124F5
:10146000911DB29F700D811D1124911D089545326B
:10147000510520F4423010F00C94420AFB01108216
:10148000CB010895BB274A3031F4992322F4BDE201
:10149000909581959F4F0C944E0ABB27FB015527D1
:1014A000AA27880F991FAA1FA41710F0A41B8395C1
:1014B0005051B9F7A05DAA3308F0A95DA193009738
:1014C00079F7B111B1931192CB010C94670ADC0149
:1014D000FC01672F71917723E1F7329704C07C916B
:1014E0006D9370836291AE17BF07C8F30895F894A7
:0214F000FFCF2C
:1014F20096004100FF03FF03FF03FF03FF03FF0307
:10150200FF03FF037101E601B001F101DB01CB0131
:10151200F701B6012302AC026A02C102A7029702D6
:10152200D3027C02BC02BC02BC02BC02BC02BC02F2
:10153200BC02BC020909004D415809004D494E093F
:1015420000544852090055544809004C54480900B7
:0C15520050524F09000A0A0A0A0A0A0057
:00000001FF
